{
  "contractName": "ComposableTopDown",
  "abi": [
    {
      "anonymous": false,
      "inputs": [
        {
          "indexed": true,
          "internalType": "address",
          "name": "_owner",
          "type": "address"
        },
        {
          "indexed": true,
          "internalType": "address",
          "name": "_approved",
          "type": "address"
        },
        {
          "indexed": true,
          "internalType": "uint256",
          "name": "_tokenId",
          "type": "uint256"
        }
      ],
      "name": "Approval",
      "type": "event"
    },
    {
      "anonymous": false,
      "inputs": [
        {
          "indexed": true,
          "internalType": "address",
          "name": "_owner",
          "type": "address"
        },
        {
          "indexed": true,
          "internalType": "address",
          "name": "_operator",
          "type": "address"
        },
        {
          "indexed": false,
          "internalType": "bool",
          "name": "_approved",
          "type": "bool"
        }
      ],
      "name": "ApprovalForAll",
      "type": "event"
    },
    {
      "anonymous": false,
      "inputs": [
        {
          "indexed": false,
          "internalType": "uint256",
          "name": "tokenId",
          "type": "uint256"
        }
      ],
      "name": "ComposableMinted",
      "type": "event"
    },
    {
      "anonymous": false,
      "inputs": [
        {
          "indexed": true,
          "internalType": "address",
          "name": "_from",
          "type": "address"
        },
        {
          "indexed": true,
          "internalType": "uint256",
          "name": "_tokenId",
          "type": "uint256"
        },
        {
          "indexed": true,
          "internalType": "address",
          "name": "_childContract",
          "type": "address"
        },
        {
          "indexed": false,
          "internalType": "uint256",
          "name": "_childTokenId",
          "type": "uint256"
        }
      ],
      "name": "ReceivedChild",
      "type": "event"
    },
    {
      "anonymous": false,
      "inputs": [
        {
          "indexed": true,
          "internalType": "address",
          "name": "_from",
          "type": "address"
        },
        {
          "indexed": true,
          "internalType": "uint256",
          "name": "_tokenId",
          "type": "uint256"
        },
        {
          "indexed": true,
          "internalType": "address",
          "name": "_erc20Contract",
          "type": "address"
        },
        {
          "indexed": false,
          "internalType": "uint256",
          "name": "_value",
          "type": "uint256"
        }
      ],
      "name": "ReceivedERC20",
      "type": "event"
    },
    {
      "anonymous": false,
      "inputs": [
        {
          "indexed": true,
          "internalType": "address",
          "name": "_from",
          "type": "address"
        },
        {
          "indexed": true,
          "internalType": "address",
          "name": "_to",
          "type": "address"
        },
        {
          "indexed": true,
          "internalType": "uint256",
          "name": "_tokenId",
          "type": "uint256"
        }
      ],
      "name": "Transfer",
      "type": "event"
    },
    {
      "anonymous": false,
      "inputs": [
        {
          "indexed": true,
          "internalType": "uint256",
          "name": "tokenId",
          "type": "uint256"
        },
        {
          "indexed": true,
          "internalType": "address",
          "name": "_to",
          "type": "address"
        },
        {
          "indexed": true,
          "internalType": "address",
          "name": "_childContract",
          "type": "address"
        },
        {
          "indexed": false,
          "internalType": "uint256",
          "name": "_childTokenId",
          "type": "uint256"
        }
      ],
      "name": "TransferChild",
      "type": "event"
    },
    {
      "anonymous": false,
      "inputs": [
        {
          "indexed": true,
          "internalType": "uint256",
          "name": "_tokenId",
          "type": "uint256"
        },
        {
          "indexed": true,
          "internalType": "address",
          "name": "_to",
          "type": "address"
        },
        {
          "indexed": true,
          "internalType": "address",
          "name": "_erc20Contract",
          "type": "address"
        },
        {
          "indexed": false,
          "internalType": "uint256",
          "name": "_value",
          "type": "uint256"
        }
      ],
      "name": "TransferERC20",
      "type": "event"
    },
    {
      "inputs": [
        {
          "internalType": "address",
          "name": "_to",
          "type": "address"
        }
      ],
      "name": "mint",
      "outputs": [
        {
          "internalType": "uint256",
          "name": "",
          "type": "uint256"
        }
      ],
      "stateMutability": "nonpayable",
      "type": "function"
    },
    {
      "inputs": [
        {
          "internalType": "uint256",
          "name": "_tokenId",
          "type": "uint256"
        }
      ],
      "name": "rootOwnerOf",
      "outputs": [
        {
          "internalType": "bytes32",
          "name": "rootOwner",
          "type": "bytes32"
        }
      ],
      "stateMutability": "view",
      "type": "function",
      "constant": true
    },
    {
      "inputs": [
        {
          "internalType": "address",
          "name": "_childContract",
          "type": "address"
        },
        {
          "internalType": "uint256",
          "name": "_childTokenId",
          "type": "uint256"
        }
      ],
      "name": "rootOwnerOfChild",
      "outputs": [
        {
          "internalType": "bytes32",
          "name": "rootOwner",
          "type": "bytes32"
        }
      ],
      "stateMutability": "view",
      "type": "function",
      "constant": true
    },
    {
      "inputs": [
        {
          "internalType": "uint256",
          "name": "_tokenId",
          "type": "uint256"
        }
      ],
      "name": "ownerOf",
      "outputs": [
        {
          "internalType": "address",
          "name": "tokenOwner",
          "type": "address"
        }
      ],
      "stateMutability": "view",
      "type": "function",
      "constant": true
    },
    {
      "inputs": [
        {
          "internalType": "address",
          "name": "_tokenOwner",
          "type": "address"
        }
      ],
      "name": "balanceOf",
      "outputs": [
        {
          "internalType": "uint256",
          "name": "",
          "type": "uint256"
        }
      ],
      "stateMutability": "view",
      "type": "function",
      "constant": true
    },
    {
      "inputs": [
        {
          "internalType": "address",
          "name": "_approved",
          "type": "address"
        },
        {
          "internalType": "uint256",
          "name": "_tokenId",
          "type": "uint256"
        }
      ],
      "name": "approve",
      "outputs": [],
      "stateMutability": "nonpayable",
      "type": "function"
    },
    {
      "inputs": [
        {
          "internalType": "uint256",
          "name": "_tokenId",
          "type": "uint256"
        }
      ],
      "name": "getApproved",
      "outputs": [
        {
          "internalType": "address",
          "name": "",
          "type": "address"
        }
      ],
      "stateMutability": "view",
      "type": "function",
      "constant": true
    },
    {
      "inputs": [
        {
          "internalType": "address",
          "name": "_operator",
          "type": "address"
        },
        {
          "internalType": "bool",
          "name": "_approved",
          "type": "bool"
        }
      ],
      "name": "setApprovalForAll",
      "outputs": [],
      "stateMutability": "nonpayable",
      "type": "function"
    },
    {
      "inputs": [
        {
          "internalType": "address",
          "name": "_owner",
          "type": "address"
        },
        {
          "internalType": "address",
          "name": "_operator",
          "type": "address"
        }
      ],
      "name": "isApprovedForAll",
      "outputs": [
        {
          "internalType": "bool",
          "name": "",
          "type": "bool"
        }
      ],
      "stateMutability": "view",
      "type": "function",
      "constant": true
    },
    {
      "inputs": [
        {
          "internalType": "address",
          "name": "_from",
          "type": "address"
        },
        {
          "internalType": "address",
          "name": "_to",
          "type": "address"
        },
        {
          "internalType": "uint256",
          "name": "_tokenId",
          "type": "uint256"
        }
      ],
      "name": "transferFrom",
      "outputs": [],
      "stateMutability": "nonpayable",
      "type": "function"
    },
    {
      "inputs": [
        {
          "internalType": "address",
          "name": "_from",
          "type": "address"
        },
        {
          "internalType": "address",
          "name": "_to",
          "type": "address"
        },
        {
          "internalType": "uint256",
          "name": "_tokenId",
          "type": "uint256"
        }
      ],
      "name": "safeTransferFrom",
      "outputs": [],
      "stateMutability": "nonpayable",
      "type": "function"
    },
    {
      "inputs": [
        {
          "internalType": "address",
          "name": "_from",
          "type": "address"
        },
        {
          "internalType": "address",
          "name": "_to",
          "type": "address"
        },
        {
          "internalType": "uint256",
          "name": "_tokenId",
          "type": "uint256"
        },
        {
          "internalType": "bytes",
          "name": "_data",
          "type": "bytes"
        }
      ],
      "name": "safeTransferFrom",
      "outputs": [],
      "stateMutability": "nonpayable",
      "type": "function"
    },
    {
      "inputs": [
        {
          "internalType": "uint256",
          "name": "_fromTokenId",
          "type": "uint256"
        },
        {
          "internalType": "address",
          "name": "_to",
          "type": "address"
        },
        {
          "internalType": "address",
          "name": "_childContract",
          "type": "address"
        },
        {
          "internalType": "uint256",
          "name": "_childTokenId",
          "type": "uint256"
        }
      ],
      "name": "safeTransferChild",
      "outputs": [],
      "stateMutability": "nonpayable",
      "type": "function"
    },
    {
      "inputs": [
        {
          "internalType": "uint256",
          "name": "_fromTokenId",
          "type": "uint256"
        },
        {
          "internalType": "address",
          "name": "_to",
          "type": "address"
        },
        {
          "internalType": "address",
          "name": "_childContract",
          "type": "address"
        },
        {
          "internalType": "uint256",
          "name": "_childTokenId",
          "type": "uint256"
        },
        {
          "internalType": "bytes",
          "name": "_data",
          "type": "bytes"
        }
      ],
      "name": "safeTransferChild",
      "outputs": [],
      "stateMutability": "nonpayable",
      "type": "function"
    },
    {
      "inputs": [
        {
          "internalType": "uint256",
          "name": "_fromTokenId",
          "type": "uint256"
        },
        {
          "internalType": "address",
          "name": "_to",
          "type": "address"
        },
        {
          "internalType": "address",
          "name": "_childContract",
          "type": "address"
        },
        {
          "internalType": "uint256",
          "name": "_childTokenId",
          "type": "uint256"
        }
      ],
      "name": "transferChild",
      "outputs": [],
      "stateMutability": "nonpayable",
      "type": "function"
    },
    {
      "inputs": [
        {
          "internalType": "uint256",
          "name": "_fromTokenId",
          "type": "uint256"
        },
        {
          "internalType": "address",
          "name": "_toContract",
          "type": "address"
        },
        {
          "internalType": "uint256",
          "name": "_toTokenId",
          "type": "uint256"
        },
        {
          "internalType": "address",
          "name": "_childContract",
          "type": "address"
        },
        {
          "internalType": "uint256",
          "name": "_childTokenId",
          "type": "uint256"
        },
        {
          "internalType": "bytes",
          "name": "_data",
          "type": "bytes"
        }
      ],
      "name": "transferChildToParent",
      "outputs": [],
      "stateMutability": "nonpayable",
      "type": "function"
    },
    {
      "inputs": [
        {
          "internalType": "address",
          "name": "_from",
          "type": "address"
        },
        {
          "internalType": "uint256",
          "name": "_tokenId",
          "type": "uint256"
        },
        {
          "internalType": "address",
          "name": "_childContract",
          "type": "address"
        },
        {
          "internalType": "uint256",
          "name": "_childTokenId",
          "type": "uint256"
        }
      ],
      "name": "getChild",
      "outputs": [],
      "stateMutability": "nonpayable",
      "type": "function"
    },
    {
      "inputs": [
        {
          "internalType": "address",
          "name": "_operator",
          "type": "address"
        },
        {
          "internalType": "address",
          "name": "_from",
          "type": "address"
        },
        {
          "internalType": "uint256",
          "name": "_childTokenId",
          "type": "uint256"
        },
        {
          "internalType": "bytes",
          "name": "_data",
          "type": "bytes"
        }
      ],
      "name": "onERC721Received",
      "outputs": [
        {
          "internalType": "bytes4",
          "name": "",
          "type": "bytes4"
        }
      ],
      "stateMutability": "nonpayable",
      "type": "function"
    },
    {
      "inputs": [
        {
          "internalType": "address",
          "name": "_from",
          "type": "address"
        },
        {
          "internalType": "uint256",
          "name": "_childTokenId",
          "type": "uint256"
        },
        {
          "internalType": "bytes",
          "name": "_data",
          "type": "bytes"
        }
      ],
      "name": "onERC721Received",
      "outputs": [
        {
          "internalType": "bytes4",
          "name": "",
          "type": "bytes4"
        }
      ],
      "stateMutability": "nonpayable",
      "type": "function"
    },
    {
      "inputs": [
        {
          "internalType": "address",
          "name": "_childContract",
          "type": "address"
        },
        {
          "internalType": "uint256",
          "name": "_childTokenId",
          "type": "uint256"
        }
      ],
      "name": "ownerOfChild",
      "outputs": [
        {
          "internalType": "bytes32",
          "name": "parentTokenOwner",
          "type": "bytes32"
        },
        {
          "internalType": "uint256",
          "name": "parentTokenId",
          "type": "uint256"
        }
      ],
      "stateMutability": "view",
      "type": "function",
      "constant": true
    },
    {
      "inputs": [
        {
          "internalType": "address",
          "name": "_childContract",
          "type": "address"
        },
        {
          "internalType": "uint256",
          "name": "_childTokenId",
          "type": "uint256"
        }
      ],
      "name": "childExists",
      "outputs": [
        {
          "internalType": "bool",
          "name": "",
          "type": "bool"
        }
      ],
      "stateMutability": "view",
      "type": "function",
      "constant": true
    },
    {
      "inputs": [
        {
          "internalType": "uint256",
          "name": "_tokenId",
          "type": "uint256"
        }
      ],
      "name": "totalChildContracts",
      "outputs": [
        {
          "internalType": "uint256",
          "name": "",
          "type": "uint256"
        }
      ],
      "stateMutability": "view",
      "type": "function",
      "constant": true
    },
    {
      "inputs": [
        {
          "internalType": "uint256",
          "name": "_tokenId",
          "type": "uint256"
        },
        {
          "internalType": "uint256",
          "name": "_index",
          "type": "uint256"
        }
      ],
      "name": "childContractByIndex",
      "outputs": [
        {
          "internalType": "address",
          "name": "childContract",
          "type": "address"
        }
      ],
      "stateMutability": "view",
      "type": "function",
      "constant": true
    },
    {
      "inputs": [
        {
          "internalType": "uint256",
          "name": "_tokenId",
          "type": "uint256"
        },
        {
          "internalType": "address",
          "name": "_childContract",
          "type": "address"
        }
      ],
      "name": "totalChildTokens",
      "outputs": [
        {
          "internalType": "uint256",
          "name": "",
          "type": "uint256"
        }
      ],
      "stateMutability": "view",
      "type": "function",
      "constant": true
    },
    {
      "inputs": [
        {
          "internalType": "uint256",
          "name": "_tokenId",
          "type": "uint256"
        },
        {
          "internalType": "address",
          "name": "_childContract",
          "type": "address"
        },
        {
          "internalType": "uint256",
          "name": "_index",
          "type": "uint256"
        }
      ],
      "name": "childTokenByIndex",
      "outputs": [
        {
          "internalType": "uint256",
          "name": "childTokenId",
          "type": "uint256"
        }
      ],
      "stateMutability": "view",
      "type": "function",
      "constant": true
    },
    {
      "inputs": [
        {
          "internalType": "uint256",
          "name": "_tokenId",
          "type": "uint256"
        },
        {
          "internalType": "address",
          "name": "_erc20Contract",
          "type": "address"
        }
      ],
      "name": "balanceOfERC20",
      "outputs": [
        {
          "internalType": "uint256",
          "name": "",
          "type": "uint256"
        }
      ],
      "stateMutability": "view",
      "type": "function",
      "constant": true
    },
    {
      "inputs": [
        {
          "internalType": "uint256",
          "name": "_tokenId",
          "type": "uint256"
        },
        {
          "internalType": "address",
          "name": "_to",
          "type": "address"
        },
        {
          "internalType": "address",
          "name": "_erc20Contract",
          "type": "address"
        },
        {
          "internalType": "uint256",
          "name": "_value",
          "type": "uint256"
        }
      ],
      "name": "transferERC20",
      "outputs": [],
      "stateMutability": "nonpayable",
      "type": "function"
    },
    {
      "inputs": [
        {
          "internalType": "uint256",
          "name": "_tokenId",
          "type": "uint256"
        },
        {
          "internalType": "address",
          "name": "_to",
          "type": "address"
        },
        {
          "internalType": "address",
          "name": "_erc223Contract",
          "type": "address"
        },
        {
          "internalType": "uint256",
          "name": "_value",
          "type": "uint256"
        },
        {
          "internalType": "bytes",
          "name": "_data",
          "type": "bytes"
        }
      ],
      "name": "transferERC223",
      "outputs": [],
      "stateMutability": "nonpayable",
      "type": "function"
    },
    {
      "inputs": [
        {
          "internalType": "address",
          "name": "_from",
          "type": "address"
        },
        {
          "internalType": "uint256",
          "name": "_tokenId",
          "type": "uint256"
        },
        {
          "internalType": "address",
          "name": "_erc20Contract",
          "type": "address"
        },
        {
          "internalType": "uint256",
          "name": "_value",
          "type": "uint256"
        }
      ],
      "name": "getERC20",
      "outputs": [],
      "stateMutability": "nonpayable",
      "type": "function"
    },
    {
      "inputs": [
        {
          "internalType": "address",
          "name": "_from",
          "type": "address"
        },
        {
          "internalType": "uint256",
          "name": "_value",
          "type": "uint256"
        },
        {
          "internalType": "bytes",
          "name": "_data",
          "type": "bytes"
        }
      ],
      "name": "tokenFallback",
      "outputs": [],
      "stateMutability": "nonpayable",
      "type": "function"
    },
    {
      "inputs": [
        {
          "internalType": "uint256",
          "name": "_tokenId",
          "type": "uint256"
        },
        {
          "internalType": "uint256",
          "name": "_index",
          "type": "uint256"
        }
      ],
      "name": "erc20ContractByIndex",
      "outputs": [
        {
          "internalType": "address",
          "name": "",
          "type": "address"
        }
      ],
      "stateMutability": "view",
      "type": "function",
      "constant": true
    },
    {
      "inputs": [
        {
          "internalType": "uint256",
          "name": "_tokenId",
          "type": "uint256"
        }
      ],
      "name": "totalERC20Contracts",
      "outputs": [
        {
          "internalType": "uint256",
          "name": "",
          "type": "uint256"
        }
      ],
      "stateMutability": "view",
      "type": "function",
      "constant": true
    }
  ],
  "bytecode": "0x60806040526000805534801561001457600080fd5b50615ff980620000256000396000f3fe608060405234801561001057600080fd5b50600436106101f05760003560e01c806370a082311161010f578063bef44f18116100a2578063e985e9c511610071578063e985e9c51461061d578063eadb80b81461064d578063ed81cdda1461067e578063f0b9e5ba146106ae576101f0565b8063bef44f1814610599578063c0ee0b8a146105b5578063d49d1bac146105d1578063e226ed22146105ed576101f0565b8063a22cb465116100de578063a22cb46514610515578063a781173214610531578063b88d4fde14610561578063ba6b5f961461057d576101f0565b806370a082311461047d578063830ef41b146104ad5780638d81f51e146104c95780638da7d0b5146104e5576101f0565b806323b872dd116101875780635680a3ad116101565780635680a3ad146103bd578063627c81ff146103ed5780636352211e1461041d5780636a6278421461044d576101f0565b806323b872dd1461032557806335b21ceb1461034157806342842e0e1461037157806343a61a8e1461038d576101f0565b80630d5a621b116101c35780630d5a621b14610279578063150b7a02146102a9578063160b01a1146102d95780631d98f3c514610309576101f0565b806307cff6f2146101f5578063081812fc1461021157806308937f6214610241578063095ea7b31461025d575b600080fd5b61020f600480360381019061020a9190614b17565b6106de565b005b61022b60048036038101906102269190614b7e565b61092c565b6040516102389190614bba565b60405180910390f35b61025b60048036038101906102569190614c3a565b6109b6565b005b61027760048036038101906102729190614ce9565b610d3a565b005b610293600480360381019061028e9190614d29565b610f02565b6040516102a09190614bba565b60405180910390f35b6102c360048036038101906102be9190614d69565b610fb4565b6040516102d09190614e2c565b60405180910390f35b6102f360048036038101906102ee9190614e47565b61113a565b6040516103009190614ea9565b60405180910390f35b610323600480360381019061031e9190614ec4565b611247565b005b61033f600480360381019061033a9190614f2b565b6115c2565b005b61035b60048036038101906103569190614f7e565b6115d2565b6040516103689190614ea9565b60405180910390f35b61038b60048036038101906103869190614f2b565b611630565b005b6103a760048036038101906103a29190614b7e565b611725565b6040516103b49190614fd7565b60405180910390f35b6103d760048036038101906103d29190614ce9565b611739565b6040516103e4919061500d565b60405180910390f35b61040760048036038101906104029190614d29565b6117fe565b6040516104149190614bba565b60405180910390f35b61043760048036038101906104329190614b7e565b6118b0565b6040516104449190614bba565b60405180910390f35b61046760048036038101906104629190615028565b611927565b6040516104749190614ea9565b60405180910390f35b61049760048036038101906104929190615028565b611a2d565b6040516104a49190614ea9565b60405180910390f35b6104c760048036038101906104c29190614ec4565b611aaf565b005b6104e360048036038101906104de9190615055565b611d9d565b005b6104ff60048036038101906104fa9190614b7e565b61211e565b60405161050c9190614ea9565b60405180910390f35b61052f600480360381019061052a919061511b565b61213e565b005b61054b60048036038101906105469190614b7e565b612275565b6040516105589190614ea9565b60405180910390f35b61057b60048036038101906105769190614d69565b612295565b005b61059760048036038101906105929190614b17565b612390565b005b6105b360048036038101906105ae9190614ec4565b61257b565b005b6105cf60048036038101906105ca919061515b565b612963565b005b6105eb60048036038101906105e69190615055565b612a3a565b005b61060760048036038101906106029190614f7e565b612d2e565b6040516106149190614ea9565b60405180910390f35b610637600480360381019061063291906151cf565b612d89565b604051610644919061500d565b60405180910390f35b61066760048036038101906106629190614ce9565b612e90565b60405161067592919061520f565b60405180910390f35b61069860048036038101906106939190614ce9565b612fda565b6040516106a59190614fd7565b60405180910390f35b6106c860048036038101906106c3919061515b565b6131b8565b6040516106d59190614e2c565b60405180910390f35b60003373ffffffffffffffffffffffffffffffffffffffff168573ffffffffffffffffffffffffffffffffffffffff161490508061081a5760008063dd62ed3e8733604051602401610731929190615238565b6040516020818303038152906040529060e01b6020820180517bffffffffffffffffffffffffffffffffffffffffffffffffffffffff838183161783525050505090506000602082835160208501895afa9050801561078f57815192505b806107cf576040517f08c379a00000000000000000000000000000000000000000000000000000000081526004016107c6906152be565b60405180910390fd5b84831015610812576040517f08c379a00000000000000000000000000000000000000000000000000000000081526004016108099061532a565b60405180910390fd5b600193505050505b8061085a576040517f08c379a000000000000000000000000000000000000000000000000000000000815260040161085190615396565b60405180910390fd5b6108668585858561333d565b8273ffffffffffffffffffffffffffffffffffffffff166323b872dd8630856040518463ffffffff1660e01b81526004016108a3939291906153b6565b6020604051808303816000875af11580156108c2573d6000803e3d6000fd5b505050506040513d601f19601f820116820180604052508101906108e69190615402565b610925576040517f08c379a000000000000000000000000000000000000000000000000000000000815260040161091c9061547b565b60405180910390fd5b5050505050565b60008061093883611725565b60601c9050600260008273ffffffffffffffffffffffffffffffffffffffff1673ffffffffffffffffffffffffffffffffffffffff168152602001908152602001600020600084815260200190815260200160002060009054906101000a900473ffffffffffffffffffffffffffffffffffffffff16915050919050565b6000600960008673ffffffffffffffffffffffffffffffffffffffff1673ffffffffffffffffffffffffffffffffffffffff16815260200190815260200160002060008581526020019081526020016000205490506000811180610a7b575060006008600083815260200190815260200160002060008773ffffffffffffffffffffffffffffffffffffffff1673ffffffffffffffffffffffffffffffffffffffff168152602001908152602001600020600086815260200190815260200160002054115b610a8457600080fd5b878114610a9057600080fd5b600073ffffffffffffffffffffffffffffffffffffffff168773ffffffffffffffffffffffffffffffffffffffff161415610aca57600080fd5b6000610ad582611725565b60601c90503373ffffffffffffffffffffffffffffffffffffffff168173ffffffffffffffffffffffffffffffffffffffff161480610b9a5750600460008273ffffffffffffffffffffffffffffffffffffffff1673ffffffffffffffffffffffffffffffffffffffff16815260200190815260200160002060003373ffffffffffffffffffffffffffffffffffffffff1673ffffffffffffffffffffffffffffffffffffffff16815260200190815260200160002060009054906101000a900460ff165b80610c4057503373ffffffffffffffffffffffffffffffffffffffff16600260008373ffffffffffffffffffffffffffffffffffffffff1673ffffffffffffffffffffffffffffffffffffffff168152602001908152602001600020600084815260200190815260200160002060009054906101000a900473ffffffffffffffffffffffffffffffffffffffff1673ffffffffffffffffffffffffffffffffffffffff16145b610c4957600080fd5b610c54898787613601565b8573ffffffffffffffffffffffffffffffffffffffff1663f50acfa0308a8a8989896040518763ffffffff1660e01b8152600401610c97969594939291906154f9565b600060405180830381600087803b158015610cb157600080fd5b505af1158015610cc5573d6000803e3d6000fd5b505050508573ffffffffffffffffffffffffffffffffffffffff168873ffffffffffffffffffffffffffffffffffffffff168a7f0ef52e516fb5aec15a5d3587e5480481b702b26db93c8430eca78b61990fd3f688604051610d279190614ea9565b60405180910390a4505050505050505050565b6000610d4582611725565b60601c90503373ffffffffffffffffffffffffffffffffffffffff168173ffffffffffffffffffffffffffffffffffffffff161480610e0a5750600460008273ffffffffffffffffffffffffffffffffffffffff1673ffffffffffffffffffffffffffffffffffffffff16815260200190815260200160002060003373ffffffffffffffffffffffffffffffffffffffff1673ffffffffffffffffffffffffffffffffffffffff16815260200190815260200160002060009054906101000a900460ff165b610e1357600080fd5b82600260008373ffffffffffffffffffffffffffffffffffffffff1673ffffffffffffffffffffffffffffffffffffffff168152602001908152602001600020600084815260200190815260200160002060006101000a81548173ffffffffffffffffffffffffffffffffffffffff021916908373ffffffffffffffffffffffffffffffffffffffff160217905550818373ffffffffffffffffffffffffffffffffffffffff168273ffffffffffffffffffffffffffffffffffffffff167f8c5be1e5ebec7d5bd14f71427d1e84f3dd0314c0f7b2291e5b200ac8c7c3b92560405160405180910390a4505050565b600060056000848152602001908152602001600020805490508210610f5c576040517f08c379a0000000000000000000000000000000000000000000000000000000008152600401610f53906155c7565b60405180910390fd5b600560008481526020019081526020016000208281548110610f8157610f806155e7565b5b9060005260206000200160009054906101000a900473ffffffffffffffffffffffffffffffffffffffff16905092915050565b6000808383905011610ffb576040517f08c379a0000000000000000000000000000000000000000000000000000000008152600401610ff2906156ae565b60405180910390fd5b600060a435905060208484905010156110315760088484905061101e91906156fd565b61010061102b9190615757565b81901c90505b61103d86823388613b55565b600073ffffffffffffffffffffffffffffffffffffffff163373ffffffffffffffffffffffffffffffffffffffff16636352211e876040518263ffffffff1660e01b815260040161108e9190614ea9565b602060405180830381865afa1580156110ab573d6000803e3d6000fd5b505050506040513d601f19601f820116820180604052508101906110cf91906157a0565b73ffffffffffffffffffffffffffffffffffffffff161415611126576040517f08c379a000000000000000000000000000000000000000000000000000000000815260040161111d90615819565b60405180910390fd5b63150b7a0260e01b91505095945050505050565b60006007600085815260200190815260200160002060008473ffffffffffffffffffffffffffffffffffffffff1673ffffffffffffffffffffffffffffffffffffffff1681526020019081526020016000208054905082106111d1576040517f08c379a00000000000000000000000000000000000000000000000000000000081526004016111c8906158ab565b60405180910390fd5b6007600085815260200190815260200160002060008473ffffffffffffffffffffffffffffffffffffffff1673ffffffffffffffffffffffffffffffffffffffff1681526020019081526020016000208281548110611233576112326155e7565b5b906000526020600020015490509392505050565b6000600960008473ffffffffffffffffffffffffffffffffffffffff1673ffffffffffffffffffffffffffffffffffffffff1681526020019081526020016000206000838152602001908152602001600020549050600081118061130c575060006008600083815260200190815260200160002060008573ffffffffffffffffffffffffffffffffffffffff1673ffffffffffffffffffffffffffffffffffffffff168152602001908152602001600020600084815260200190815260200160002054115b61131557600080fd5b84811461132157600080fd5b600073ffffffffffffffffffffffffffffffffffffffff168473ffffffffffffffffffffffffffffffffffffffff16141561135b57600080fd5b600061136682611725565b60601c90503373ffffffffffffffffffffffffffffffffffffffff168173ffffffffffffffffffffffffffffffffffffffff16148061142b5750600460008273ffffffffffffffffffffffffffffffffffffffff1673ffffffffffffffffffffffffffffffffffffffff16815260200190815260200160002060003373ffffffffffffffffffffffffffffffffffffffff1673ffffffffffffffffffffffffffffffffffffffff16815260200190815260200160002060009054906101000a900460ff165b806114d157503373ffffffffffffffffffffffffffffffffffffffff16600260008373ffffffffffffffffffffffffffffffffffffffff1673ffffffffffffffffffffffffffffffffffffffff168152602001908152602001600020600084815260200190815260200160002060009054906101000a900473ffffffffffffffffffffffffffffffffffffffff1673ffffffffffffffffffffffffffffffffffffffff16145b6114da57600080fd5b6114e5828585613601565b8373ffffffffffffffffffffffffffffffffffffffff166342842e0e3087866040518463ffffffff1660e01b8152600401611522939291906153b6565b600060405180830381600087803b15801561153c57600080fd5b505af1158015611550573d6000803e3d6000fd5b505050508373ffffffffffffffffffffffffffffffffffffffff168573ffffffffffffffffffffffffffffffffffffffff16837f0ef52e516fb5aec15a5d3587e5480481b702b26db93c8430eca78b61990fd3f6866040516115b29190614ea9565b60405180910390a4505050505050565b6115cd838383613f88565b505050565b60006007600084815260200190815260200160002060008373ffffffffffffffffffffffffffffffffffffffff1673ffffffffffffffffffffffffffffffffffffffff16815260200190815260200160002080549050905092915050565b61163b838383613f88565b6116448261461f565b156117205760008273ffffffffffffffffffffffffffffffffffffffff1663150b7a023386856040518463ffffffff1660e01b8152600401611688939291906158f1565b6020604051808303816000875af11580156116a7573d6000803e3d6000fd5b505050506040513d601f19601f820116820180604052508101906116cb9190615967565b905063f0b9e5ba60e01b7bffffffffffffffffffffffffffffffffffffffffffffffffffffffff1916817bffffffffffffffffffffffffffffffffffffffffffffffffffffffff19161461171e57600080fd5b505b505050565b6000611732600083612fda565b9050919050565b600080600960008573ffffffffffffffffffffffffffffffffffffffff1673ffffffffffffffffffffffffffffffffffffffff168152602001908152602001600020600084815260200190815260200160002054905060006008600083815260200190815260200160002060008673ffffffffffffffffffffffffffffffffffffffff1673ffffffffffffffffffffffffffffffffffffffff168152602001908152602001600020600085815260200190815260200160002054141591505092915050565b6000600a6000848152602001908152602001600020805490508210611858576040517f08c379a000000000000000000000000000000000000000000000000000000000815260040161184f906155c7565b60405180910390fd5b600a6000848152602001908152602001600020828154811061187d5761187c6155e7565b5b9060005260206000200160009054906101000a900473ffffffffffffffffffffffffffffffffffffffff16905092915050565b60006001600083815260200190815260200160002060009054906101000a900473ffffffffffffffffffffffffffffffffffffffff169050600073ffffffffffffffffffffffffffffffffffffffff168173ffffffffffffffffffffffffffffffffffffffff16141561192257600080fd5b919050565b600080600081548092919061193b90615994565b9190505550600080549050826001600083815260200190815260200160002060006101000a81548173ffffffffffffffffffffffffffffffffffffffff021916908373ffffffffffffffffffffffffffffffffffffffff160217905550600360008473ffffffffffffffffffffffffffffffffffffffff1673ffffffffffffffffffffffffffffffffffffffff16815260200190815260200160002060008154809291906119e890615994565b91905055507f73e0477471cf46bfdfa14e3ac320bf887c94fa1c551c58664a8bf9fbef86c15b81604051611a1c9190614ea9565b60405180910390a180915050919050565b60008073ffffffffffffffffffffffffffffffffffffffff168273ffffffffffffffffffffffffffffffffffffffff161415611a6857600080fd5b600360008373ffffffffffffffffffffffffffffffffffffffff1673ffffffffffffffffffffffffffffffffffffffff168152602001908152602001600020549050919050565b600073ffffffffffffffffffffffffffffffffffffffff168373ffffffffffffffffffffffffffffffffffffffff161415611ae957600080fd5b6000611af485611725565b60601c90503373ffffffffffffffffffffffffffffffffffffffff168173ffffffffffffffffffffffffffffffffffffffff161480611bb95750600460008273ffffffffffffffffffffffffffffffffffffffff1673ffffffffffffffffffffffffffffffffffffffff16815260200190815260200160002060003373ffffffffffffffffffffffffffffffffffffffff1673ffffffffffffffffffffffffffffffffffffffff16815260200190815260200160002060009054906101000a900460ff165b80611c5f57503373ffffffffffffffffffffffffffffffffffffffff16600260008373ffffffffffffffffffffffffffffffffffffffff1673ffffffffffffffffffffffffffffffffffffffff168152602001908152602001600020600087815260200190815260200160002060009054906101000a900473ffffffffffffffffffffffffffffffffffffffff1673ffffffffffffffffffffffffffffffffffffffff16145b611c6857600080fd5b611c73858484614632565b8273ffffffffffffffffffffffffffffffffffffffff1663a9059cbb85846040518363ffffffff1660e01b8152600401611cae9291906159dd565b6020604051808303816000875af1158015611ccd573d6000803e3d6000fd5b505050506040513d601f19601f82011682018060405250810190611cf19190615402565b611d30576040517f08c379a0000000000000000000000000000000000000000000000000000000008152600401611d279061547b565b60405180910390fd5b8273ffffffffffffffffffffffffffffffffffffffff168473ffffffffffffffffffffffffffffffffffffffff16867fa8352277873fc0d2b233b8127433da351a4164fa701ed6ff79655694222932c485604051611d8e9190614ea9565b60405180910390a45050505050565b6000600960008673ffffffffffffffffffffffffffffffffffffffff1673ffffffffffffffffffffffffffffffffffffffff16815260200190815260200160002060008581526020019081526020016000205490506000811180611e62575060006008600083815260200190815260200160002060008773ffffffffffffffffffffffffffffffffffffffff1673ffffffffffffffffffffffffffffffffffffffff168152602001908152602001600020600086815260200190815260200160002054115b611e6b57600080fd5b868114611e7757600080fd5b600073ffffffffffffffffffffffffffffffffffffffff168673ffffffffffffffffffffffffffffffffffffffff161415611eb157600080fd5b6000611ebc82611725565b60601c90503373ffffffffffffffffffffffffffffffffffffffff168173ffffffffffffffffffffffffffffffffffffffff161480611f815750600460008273ffffffffffffffffffffffffffffffffffffffff1673ffffffffffffffffffffffffffffffffffffffff16815260200190815260200160002060003373ffffffffffffffffffffffffffffffffffffffff1673ffffffffffffffffffffffffffffffffffffffff16815260200190815260200160002060009054906101000a900460ff165b8061202757503373ffffffffffffffffffffffffffffffffffffffff16600260008373ffffffffffffffffffffffffffffffffffffffff1673ffffffffffffffffffffffffffffffffffffffff168152602001908152602001600020600084815260200190815260200160002060009054906101000a900473ffffffffffffffffffffffffffffffffffffffff1673ffffffffffffffffffffffffffffffffffffffff16145b61203057600080fd5b61203b828787613601565b8573ffffffffffffffffffffffffffffffffffffffff1663b88d4fde30898888886040518663ffffffff1660e01b815260040161207c959493929190615a06565b600060405180830381600087803b15801561209657600080fd5b505af11580156120aa573d6000803e3d6000fd5b505050508573ffffffffffffffffffffffffffffffffffffffff168773ffffffffffffffffffffffffffffffffffffffff16837f0ef52e516fb5aec15a5d3587e5480481b702b26db93c8430eca78b61990fd3f68860405161210c9190614ea9565b60405180910390a45050505050505050565b600060056000838152602001908152602001600020805490509050919050565b600073ffffffffffffffffffffffffffffffffffffffff168273ffffffffffffffffffffffffffffffffffffffff16141561217857600080fd5b80600460003373ffffffffffffffffffffffffffffffffffffffff1673ffffffffffffffffffffffffffffffffffffffff16815260200190815260200160002060008473ffffffffffffffffffffffffffffffffffffffff1673ffffffffffffffffffffffffffffffffffffffff16815260200190815260200160002060006101000a81548160ff0219169083151502179055508173ffffffffffffffffffffffffffffffffffffffff163373ffffffffffffffffffffffffffffffffffffffff167f17307eab39ab6107e8899845ad3d59bd9653f200f220920489ca2b5937696c3183604051612269919061500d565b60405180910390a35050565b6000600a6000838152602001908152602001600020805490509050919050565b6122a0858585613f88565b6122a98461461f565b156123895760008473ffffffffffffffffffffffffffffffffffffffff1663150b7a0233888787876040518663ffffffff1660e01b81526004016122f1959493929190615a06565b6020604051808303816000875af1158015612310573d6000803e3d6000fd5b505050506040513d601f19601f820116820180604052508101906123349190615967565b905063f0b9e5ba60e01b7bffffffffffffffffffffffffffffffffffffffffffffffffffffffff1916817bffffffffffffffffffffffffffffffffffffffffffffffffffffffff19161461238757600080fd5b505b5050505050565b61239c84848484613b55565b3373ffffffffffffffffffffffffffffffffffffffff168473ffffffffffffffffffffffffffffffffffffffff16148061244e57508173ffffffffffffffffffffffffffffffffffffffff1663e985e9c585336040518363ffffffff1660e01b815260040161240c929190615238565b602060405180830381865afa158015612429573d6000803e3d6000fd5b505050506040513d601f19601f8201168201806040525081019061244d9190615402565b5b806124fd57503373ffffffffffffffffffffffffffffffffffffffff168273ffffffffffffffffffffffffffffffffffffffff1663081812fc836040518263ffffffff1660e01b81526004016124a49190614ea9565b602060405180830381865afa1580156124c1573d6000803e3d6000fd5b505050506040513d601f19601f820116820180604052508101906124e591906157a0565b73ffffffffffffffffffffffffffffffffffffffff16145b61250657600080fd5b8173ffffffffffffffffffffffffffffffffffffffff166323b872dd8530846040518463ffffffff1660e01b8152600401612543939291906153b6565b600060405180830381600087803b15801561255d57600080fd5b505af1158015612571573d6000803e3d6000fd5b5050505050505050565b6000600960008473ffffffffffffffffffffffffffffffffffffffff1673ffffffffffffffffffffffffffffffffffffffff16815260200190815260200160002060008381526020019081526020016000205490506000811180612640575060006008600083815260200190815260200160002060008573ffffffffffffffffffffffffffffffffffffffff1673ffffffffffffffffffffffffffffffffffffffff168152602001908152602001600020600084815260200190815260200160002054115b61264957600080fd5b84811461265557600080fd5b600073ffffffffffffffffffffffffffffffffffffffff168473ffffffffffffffffffffffffffffffffffffffff16141561268f57600080fd5b600061269a82611725565b60601c90503373ffffffffffffffffffffffffffffffffffffffff168173ffffffffffffffffffffffffffffffffffffffff16148061275f5750600460008273ffffffffffffffffffffffffffffffffffffffff1673ffffffffffffffffffffffffffffffffffffffff16815260200190815260200160002060003373ffffffffffffffffffffffffffffffffffffffff1673ffffffffffffffffffffffffffffffffffffffff16815260200190815260200160002060009054906101000a900460ff165b8061280557503373ffffffffffffffffffffffffffffffffffffffff16600260008373ffffffffffffffffffffffffffffffffffffffff1673ffffffffffffffffffffffffffffffffffffffff168152602001908152602001600020600084815260200190815260200160002060009054906101000a900473ffffffffffffffffffffffffffffffffffffffff1673ffffffffffffffffffffffffffffffffffffffff16145b61280e57600080fd5b612819828585613601565b600063095ea7b33085604051602401612833929190615ab3565b6040516020818303038152906040529060e01b6020820180517bffffffffffffffffffffffffffffffffffffffffffffffffffffffff838183161783525050505090506000818251602084016000895af1508473ffffffffffffffffffffffffffffffffffffffff166323b872dd3088876040518463ffffffff1660e01b81526004016128c2939291906153b6565b600060405180830381600087803b1580156128dc57600080fd5b505af11580156128f0573d6000803e3d6000fd5b505050508473ffffffffffffffffffffffffffffffffffffffff168673ffffffffffffffffffffffffffffffffffffffff16847f0ef52e516fb5aec15a5d3587e5480481b702b26db93c8430eca78b61990fd3f6876040516129529190614ea9565b60405180910390a450505050505050565b600082829050116129a9576040517f08c379a00000000000000000000000000000000000000000000000000000000081526004016129a090615b4e565b60405180910390fd5b6129b23361461f565b6129f1576040517f08c379a00000000000000000000000000000000000000000000000000000000081526004016129e890615bba565b60405180910390fd5b600060843590506020838390501015612a2757600883839050612a1491906156fd565b610100612a219190615757565b81901c90505b612a338582338761333d565b5050505050565b600073ffffffffffffffffffffffffffffffffffffffff168573ffffffffffffffffffffffffffffffffffffffff161415612a7457600080fd5b6000612a7f87611725565b60601c90503373ffffffffffffffffffffffffffffffffffffffff168173ffffffffffffffffffffffffffffffffffffffff161480612b445750600460008273ffffffffffffffffffffffffffffffffffffffff1673ffffffffffffffffffffffffffffffffffffffff16815260200190815260200160002060003373ffffffffffffffffffffffffffffffffffffffff1673ffffffffffffffffffffffffffffffffffffffff16815260200190815260200160002060009054906101000a900460ff165b80612bea57503373ffffffffffffffffffffffffffffffffffffffff16600260008373ffffffffffffffffffffffffffffffffffffffff1673ffffffffffffffffffffffffffffffffffffffff168152602001908152602001600020600089815260200190815260200160002060009054906101000a900473ffffffffffffffffffffffffffffffffffffffff1673ffffffffffffffffffffffffffffffffffffffff16145b612bf357600080fd5b612bfe878686614632565b8473ffffffffffffffffffffffffffffffffffffffff1663be45fd62878686866040518563ffffffff1660e01b8152600401612c3d9493929190615bda565b6020604051808303816000875af1158015612c5c573d6000803e3d6000fd5b505050506040513d601f19601f82011682018060405250810190612c809190615402565b612cbf576040517f08c379a0000000000000000000000000000000000000000000000000000000008152600401612cb690615c66565b60405180910390fd5b8473ffffffffffffffffffffffffffffffffffffffff168673ffffffffffffffffffffffffffffffffffffffff16887fa8352277873fc0d2b233b8127433da351a4164fa701ed6ff79655694222932c487604051612d1d9190614ea9565b60405180910390a450505050505050565b6000600c600084815260200190815260200160002060008373ffffffffffffffffffffffffffffffffffffffff1673ffffffffffffffffffffffffffffffffffffffff16815260200190815260200160002054905092915050565b60008073ffffffffffffffffffffffffffffffffffffffff168373ffffffffffffffffffffffffffffffffffffffff161415612dc457600080fd5b600073ffffffffffffffffffffffffffffffffffffffff168273ffffffffffffffffffffffffffffffffffffffff161415612dfe57600080fd5b600460008473ffffffffffffffffffffffffffffffffffffffff1673ffffffffffffffffffffffffffffffffffffffff16815260200190815260200160002060008373ffffffffffffffffffffffffffffffffffffffff1673ffffffffffffffffffffffffffffffffffffffff16815260200190815260200160002060009054906101000a900460ff16905092915050565b600080600960008573ffffffffffffffffffffffffffffffffffffffff1673ffffffffffffffffffffffffffffffffffffffff16815260200190815260200160002060008481526020019081526020016000205490506000811180612f56575060006008600083815260200190815260200160002060008673ffffffffffffffffffffffffffffffffffffffff1673ffffffffffffffffffffffffffffffffffffffff168152602001908152602001600020600085815260200190815260200160002054115b612f5f57600080fd5b6001600082815260200190815260200160002060009054906101000a900473ffffffffffffffffffffffffffffffffffffffff1660601b6bffffffffffffffffffffffff191660e063cd740db560e01b7bffffffffffffffffffffffffffffffffffffffffffffffffffffffff1916901b1791509250929050565b600080600073ffffffffffffffffffffffffffffffffffffffff168473ffffffffffffffffffffffffffffffffffffffff16146130285761301b848461496d565b809450819250505061305f565b6001600084815260200190815260200160002060009054906101000a900473ffffffffffffffffffffffffffffffffffffffff1690505b5b3073ffffffffffffffffffffffffffffffffffffffff168173ffffffffffffffffffffffffffffffffffffffff1614156130ab5761309e818461496d565b8094508192505050613060565b6000606063ed81cdda30866040516024016130c79291906159dd565b6040516020818303038152906040529060e01b6020820180517bffffffffffffffffffffffffffffffffffffffffffffffffffffffff83818316178352505050509050602081825160208401865afa9150811561312357805193505b60011515821515148015613160575063cd740db560e01b7bffffffffffffffffffffffffffffffffffffffffffffffffffffffff191660e085901c145b1561316d575050506131b2565b8260601b6bffffffffffffffffffffffff191660e063cd740db560e01b7bffffffffffffffffffffffffffffffffffffffffffffffffffffffff1916901b1793505050505b92915050565b60008083839050116131ff576040517f08c379a00000000000000000000000000000000000000000000000000000000081526004016131f6906156ae565b60405180910390fd5b6000608435905060208484905010156132355760088484905061322291906156fd565b61010061322f9190615757565b81901c90505b61324186823388613b55565b600073ffffffffffffffffffffffffffffffffffffffff163373ffffffffffffffffffffffffffffffffffffffff16636352211e876040518263ffffffff1660e01b81526004016132929190614ea9565b602060405180830381865afa1580156132af573d6000803e3d6000fd5b505050506040513d601f19601f820116820180604052508101906132d391906157a0565b73ffffffffffffffffffffffffffffffffffffffff16141561332a576040517f08c379a000000000000000000000000000000000000000000000000000000000815260040161332190615819565b60405180910390fd5b63f0b9e5ba60e01b915050949350505050565b600073ffffffffffffffffffffffffffffffffffffffff166001600085815260200190815260200160002060009054906101000a900473ffffffffffffffffffffffffffffffffffffffff1673ffffffffffffffffffffffffffffffffffffffff1614156133e0576040517f08c379a00000000000000000000000000000000000000000000000000000000081526004016133d790615cd2565b60405180910390fd5b60008114156133ee576135fb565b6000600c600085815260200190815260200160002060008473ffffffffffffffffffffffffffffffffffffffff1673ffffffffffffffffffffffffffffffffffffffff168152602001908152602001600020549050600081141561352c57600a600085815260200190815260200160002080549050600b600086815260200190815260200160002060008573ffffffffffffffffffffffffffffffffffffffff1673ffffffffffffffffffffffffffffffffffffffff16815260200190815260200160002081905550600a6000858152602001908152602001600020839080600181540180825580915050600190039060005260206000200160009091909190916101000a81548173ffffffffffffffffffffffffffffffffffffffff021916908373ffffffffffffffffffffffffffffffffffffffff1602179055505b81600c600086815260200190815260200160002060008573ffffffffffffffffffffffffffffffffffffffff1673ffffffffffffffffffffffffffffffffffffffff168152602001908152602001600020600082825461358c9190615cf2565b925050819055508273ffffffffffffffffffffffffffffffffffffffff16848673ffffffffffffffffffffffffffffffffffffffff167f684ce28ace37552c6bfb98b7cceda8ed55327078eafb5dfb31218e0856382763856040516135f19190614ea9565b60405180910390a4505b50505050565b60006008600085815260200190815260200160002060008473ffffffffffffffffffffffffffffffffffffffff1673ffffffffffffffffffffffffffffffffffffffff168152602001908152602001600020600083815260200190815260200160002054905060008114156136ab576040517f08c379a00000000000000000000000000000000000000000000000000000000081526004016136a290615d94565b60405180910390fd5b600060016007600087815260200190815260200160002060008673ffffffffffffffffffffffffffffffffffffffff1673ffffffffffffffffffffffffffffffffffffffff1681526020019081526020016000208054905061370d9190615757565b905060006007600087815260200190815260200160002060008673ffffffffffffffffffffffffffffffffffffffff1673ffffffffffffffffffffffffffffffffffffffff1681526020019081526020016000208281548110613773576137726155e7565b5b906000526020600020015490508084141561386c57806007600088815260200190815260200160002060008773ffffffffffffffffffffffffffffffffffffffff1673ffffffffffffffffffffffffffffffffffffffff1681526020019081526020016000206001856137e69190615757565b815481106137f7576137f66155e7565b5b9060005260206000200181905550826008600088815260200190815260200160002060008773ffffffffffffffffffffffffffffffffffffffff1673ffffffffffffffffffffffffffffffffffffffff1681526020019081526020016000206000838152602001908152602001600020819055505b6008600087815260200190815260200160002060008673ffffffffffffffffffffffffffffffffffffffff1673ffffffffffffffffffffffffffffffffffffffff168152602001908152602001600020600085815260200190815260200160002060009055600960008673ffffffffffffffffffffffffffffffffffffffff1673ffffffffffffffffffffffffffffffffffffffff1681526020019081526020016000206000858152602001908152602001600020600090556000821415613b4d576000600160056000898152602001908152602001600020805490506139539190615757565b9050600060056000898152602001908152602001600020828154811061397c5761397b6155e7565b5b9060005260206000200160009054906101000a900473ffffffffffffffffffffffffffffffffffffffff1690508073ffffffffffffffffffffffffffffffffffffffff168773ffffffffffffffffffffffffffffffffffffffff1614613af6576000600660008a815260200190815260200160002060008973ffffffffffffffffffffffffffffffffffffffff1673ffffffffffffffffffffffffffffffffffffffff16815260200190815260200160002054905081600560008b81526020019081526020016000208281548110613a5757613a566155e7565b5b9060005260206000200160006101000a81548173ffffffffffffffffffffffffffffffffffffffff021916908373ffffffffffffffffffffffffffffffffffffffff16021790555080600660008b815260200190815260200160002060008473ffffffffffffffffffffffffffffffffffffffff1673ffffffffffffffffffffffffffffffffffffffff16815260200190815260200160002081905550505b6006600089815260200190815260200160002060008873ffffffffffffffffffffffffffffffffffffffff1673ffffffffffffffffffffffffffffffffffffffff1681526020019081526020016000206000905550505b505050505050565b600073ffffffffffffffffffffffffffffffffffffffff166001600085815260200190815260200160002060009054906101000a900473ffffffffffffffffffffffffffffffffffffffff1673ffffffffffffffffffffffffffffffffffffffff161415613bf8576040517f08c379a0000000000000000000000000000000000000000000000000000000008152600401613bef90615cd2565b60405180910390fd5b60006008600085815260200190815260200160002060008473ffffffffffffffffffffffffffffffffffffffff1673ffffffffffffffffffffffffffffffffffffffff16815260200190815260200160002060008381526020019081526020016000205414613c9c576040517f08c379a0000000000000000000000000000000000000000000000000000000008152600401613c9390615e26565b60405180910390fd5b60006007600085815260200190815260200160002060008473ffffffffffffffffffffffffffffffffffffffff1673ffffffffffffffffffffffffffffffffffffffff1681526020019081526020016000208054905090506000811415613ddd5760056000858152602001908152602001600020805490506006600086815260200190815260200160002060008573ffffffffffffffffffffffffffffffffffffffff1673ffffffffffffffffffffffffffffffffffffffff1681526020019081526020016000208190555060056000858152602001908152602001600020839080600181540180825580915050600190039060005260206000200160009091909190916101000a81548173ffffffffffffffffffffffffffffffffffffffff021916908373ffffffffffffffffffffffffffffffffffffffff1602179055505b6007600085815260200190815260200160002060008473ffffffffffffffffffffffffffffffffffffffff1673ffffffffffffffffffffffffffffffffffffffff168152602001908152602001600020829080600181540180825580915050600190039060005260206000200160009091909190915055600181613e619190615cf2565b6008600086815260200190815260200160002060008573ffffffffffffffffffffffffffffffffffffffff1673ffffffffffffffffffffffffffffffffffffffff16815260200190815260200160002060008481526020019081526020016000208190555083600960008573ffffffffffffffffffffffffffffffffffffffff1673ffffffffffffffffffffffffffffffffffffffff1681526020019081526020016000206000848152602001908152602001600020819055508273ffffffffffffffffffffffffffffffffffffffff16848673ffffffffffffffffffffffffffffffffffffffff167f0371ddf2288ad1ba92626a7e31c86a9d006e592cfe57d7d946ef08b13457c08b85604051613f799190614ea9565b60405180910390a45050505050565b600073ffffffffffffffffffffffffffffffffffffffff168373ffffffffffffffffffffffffffffffffffffffff161415613fc257600080fd5b8273ffffffffffffffffffffffffffffffffffffffff166001600083815260200190815260200160002060009054906101000a900473ffffffffffffffffffffffffffffffffffffffff1673ffffffffffffffffffffffffffffffffffffffff161461402d57600080fd5b600073ffffffffffffffffffffffffffffffffffffffff168273ffffffffffffffffffffffffffffffffffffffff16141561406757600080fd5b8273ffffffffffffffffffffffffffffffffffffffff163373ffffffffffffffffffffffffffffffffffffffff16146142cb57600080600063ed81cdda30856040516024016140b79291906159dd565b6040516020818303038152906040529060e01b6020820180517bffffffffffffffffffffffffffffffffffffffffffffffffffffffff83818316178352505050509050602081825160208401895afa9150811561411357805192505b60011515821515141561418e5763cd740db560e01b7bffffffffffffffffffffffffffffffffffffffffffffffffffffffff191660e084901c141561418d576040517f08c379a000000000000000000000000000000000000000000000000000000000815260040161418490615eb8565b60405180910390fd5b5b600460008773ffffffffffffffffffffffffffffffffffffffff1673ffffffffffffffffffffffffffffffffffffffff16815260200190815260200160002060003373ffffffffffffffffffffffffffffffffffffffff1673ffffffffffffffffffffffffffffffffffffffff16815260200190815260200160002060009054906101000a900460ff16806142be57503373ffffffffffffffffffffffffffffffffffffffff16600260008873ffffffffffffffffffffffffffffffffffffffff1673ffffffffffffffffffffffffffffffffffffffff168152602001908152602001600020600086815260200190815260200160002060009054906101000a900473ffffffffffffffffffffffffffffffffffffffff1673ffffffffffffffffffffffffffffffffffffffff16145b6142c757600080fd5b5050505b600073ffffffffffffffffffffffffffffffffffffffff16600260008573ffffffffffffffffffffffffffffffffffffffff1673ffffffffffffffffffffffffffffffffffffffff168152602001908152602001600020600083815260200190815260200160002060009054906101000a900473ffffffffffffffffffffffffffffffffffffffff1673ffffffffffffffffffffffffffffffffffffffff161461443f57600260008473ffffffffffffffffffffffffffffffffffffffff1673ffffffffffffffffffffffffffffffffffffffff168152602001908152602001600020600082815260200190815260200160002060006101000a81549073ffffffffffffffffffffffffffffffffffffffff021916905580600073ffffffffffffffffffffffffffffffffffffffff168473ffffffffffffffffffffffffffffffffffffffff167f8c5be1e5ebec7d5bd14f71427d1e84f3dd0314c0f7b2291e5b200ac8c7c3b92560405160405180910390a45b8173ffffffffffffffffffffffffffffffffffffffff168373ffffffffffffffffffffffffffffffffffffffff16146145bf576000600360008573ffffffffffffffffffffffffffffffffffffffff1673ffffffffffffffffffffffffffffffffffffffff16815260200190815260200160002054116144c2576144c1615ed8565b5b600360008473ffffffffffffffffffffffffffffffffffffffff1673ffffffffffffffffffffffffffffffffffffffff168152602001908152602001600020600081548092919061451290615f07565b9190505550816001600083815260200190815260200160002060006101000a81548173ffffffffffffffffffffffffffffffffffffffff021916908373ffffffffffffffffffffffffffffffffffffffff160217905550600360008373ffffffffffffffffffffffffffffffffffffffff1673ffffffffffffffffffffffffffffffffffffffff16815260200190815260200160002060008154809291906145b990615994565b91905055505b808273ffffffffffffffffffffffffffffffffffffffff168473ffffffffffffffffffffffffffffffffffffffff167fddf252ad1be2c89b69c2b068fc378daa952ba7f163c4a11628f55a4df523b3ef60405160405180910390a4505050565b600080823b905060008111915050919050565b600081141561464057614968565b6000600c600085815260200190815260200160002060008473ffffffffffffffffffffffffffffffffffffffff1673ffffffffffffffffffffffffffffffffffffffff168152602001908152602001600020549050818110156146d8576040517f08c379a00000000000000000000000000000000000000000000000000000000081526004016146cf90615fa3565b60405180910390fd5b600082826146e69190615757565b905080600c600087815260200190815260200160002060008673ffffffffffffffffffffffffffffffffffffffff1673ffffffffffffffffffffffffffffffffffffffff1681526020019081526020016000208190555060008114156149655760006001600a60008881526020019081526020016000208054905061476b9190615757565b90506000600a60008881526020019081526020016000208281548110614794576147936155e7565b5b9060005260206000200160009054906101000a900473ffffffffffffffffffffffffffffffffffffffff1690508073ffffffffffffffffffffffffffffffffffffffff168673ffffffffffffffffffffffffffffffffffffffff161461490e576000600b600089815260200190815260200160002060008873ffffffffffffffffffffffffffffffffffffffff1673ffffffffffffffffffffffffffffffffffffffff16815260200190815260200160002054905081600a60008a8152602001908152602001600020828154811061486f5761486e6155e7565b5b9060005260206000200160006101000a81548173ffffffffffffffffffffffffffffffffffffffff021916908373ffffffffffffffffffffffffffffffffffffffff16021790555080600b60008a815260200190815260200160002060008473ffffffffffffffffffffffffffffffffffffffff1673ffffffffffffffffffffffffffffffffffffffff16815260200190815260200160002081905550505b600b600088815260200190815260200160002060008773ffffffffffffffffffffffffffffffffffffffff1673ffffffffffffffffffffffffffffffffffffffff1681526020019081526020016000206000905550505b50505b505050565b600080600960008573ffffffffffffffffffffffffffffffffffffffff1673ffffffffffffffffffffffffffffffffffffffff16815260200190815260200160002060008481526020019081526020016000205490506000811180614a33575060006008600083815260200190815260200160002060008673ffffffffffffffffffffffffffffffffffffffff1673ffffffffffffffffffffffffffffffffffffffff168152602001908152602001600020600085815260200190815260200160002054115b614a3c57600080fd5b6001600082815260200190815260200160002060009054906101000a900473ffffffffffffffffffffffffffffffffffffffff1691509250929050565b600080fd5b600080fd5b600073ffffffffffffffffffffffffffffffffffffffff82169050919050565b6000614aae82614a83565b9050919050565b614abe81614aa3565b8114614ac957600080fd5b50565b600081359050614adb81614ab5565b92915050565b6000819050919050565b614af481614ae1565b8114614aff57600080fd5b50565b600081359050614b1181614aeb565b92915050565b60008060008060808587031215614b3157614b30614a79565b5b6000614b3f87828801614acc565b9450506020614b5087828801614b02565b9350506040614b6187828801614acc565b9250506060614b7287828801614b02565b91505092959194509250565b600060208284031215614b9457614b93614a79565b5b6000614ba284828501614b02565b91505092915050565b614bb481614aa3565b82525050565b6000602082019050614bcf6000830184614bab565b92915050565b600080fd5b600080fd5b600080fd5b60008083601f840112614bfa57614bf9614bd5565b5b8235905067ffffffffffffffff811115614c1757614c16614bda565b5b602083019150836001820283011115614c3357614c32614bdf565b5b9250929050565b600080600080600080600060c0888a031215614c5957614c58614a79565b5b6000614c678a828b01614b02565b9750506020614c788a828b01614acc565b9650506040614c898a828b01614b02565b9550506060614c9a8a828b01614acc565b9450506080614cab8a828b01614b02565b93505060a088013567ffffffffffffffff811115614ccc57614ccb614a7e565b5b614cd88a828b01614be4565b925092505092959891949750929550565b60008060408385031215614d0057614cff614a79565b5b6000614d0e85828601614acc565b9250506020614d1f85828601614b02565b9150509250929050565b60008060408385031215614d4057614d3f614a79565b5b6000614d4e85828601614b02565b9250506020614d5f85828601614b02565b9150509250929050565b600080600080600060808688031215614d8557614d84614a79565b5b6000614d9388828901614acc565b9550506020614da488828901614acc565b9450506040614db588828901614b02565b935050606086013567ffffffffffffffff811115614dd657614dd5614a7e565b5b614de288828901614be4565b92509250509295509295909350565b60007fffffffff0000000000000000000000000000000000000000000000000000000082169050919050565b614e2681614df1565b82525050565b6000602082019050614e416000830184614e1d565b92915050565b600080600060608486031215614e6057614e5f614a79565b5b6000614e6e86828701614b02565b9350506020614e7f86828701614acc565b9250506040614e9086828701614b02565b9150509250925092565b614ea381614ae1565b82525050565b6000602082019050614ebe6000830184614e9a565b92915050565b60008060008060808587031215614ede57614edd614a79565b5b6000614eec87828801614b02565b9450506020614efd87828801614acc565b9350506040614f0e87828801614acc565b9250506060614f1f87828801614b02565b91505092959194509250565b600080600060608486031215614f4457614f43614a79565b5b6000614f5286828701614acc565b9350506020614f6386828701614acc565b9250506040614f7486828701614b02565b9150509250925092565b60008060408385031215614f9557614f94614a79565b5b6000614fa385828601614b02565b9250506020614fb485828601614acc565b9150509250929050565b6000819050919050565b614fd181614fbe565b82525050565b6000602082019050614fec6000830184614fc8565b92915050565b60008115159050919050565b61500781614ff2565b82525050565b60006020820190506150226000830184614ffe565b92915050565b60006020828403121561503e5761503d614a79565b5b600061504c84828501614acc565b91505092915050565b60008060008060008060a0878903121561507257615071614a79565b5b600061508089828a01614b02565b965050602061509189828a01614acc565b95505060406150a289828a01614acc565b94505060606150b389828a01614b02565b935050608087013567ffffffffffffffff8111156150d4576150d3614a7e565b5b6150e089828a01614be4565b92509250509295509295509295565b6150f881614ff2565b811461510357600080fd5b50565b600081359050615115816150ef565b92915050565b6000806040838503121561513257615131614a79565b5b600061514085828601614acc565b925050602061515185828601615106565b9150509250929050565b6000806000806060858703121561517557615174614a79565b5b600061518387828801614acc565b945050602061519487828801614b02565b935050604085013567ffffffffffffffff8111156151b5576151b4614a7e565b5b6151c187828801614be4565b925092505092959194509250565b600080604083850312156151e6576151e5614a79565b5b60006151f485828601614acc565b925050602061520585828601614acc565b9150509250929050565b60006040820190506152246000830185614fc8565b6152316020830184614e9a565b9392505050565b600060408201905061524d6000830185614bab565b61525a6020830184614bab565b9392505050565b600082825260208201905092915050565b7f63616c6c20746f20616c6c6f77616e6365206661696c65640000000000000000600082015250565b60006152a8601883615261565b91506152b382615272565b602082019050919050565b600060208201905081810360008301526152d78161529b565b9050919050565b7f56616c75652067726561746572207468616e2072656d61696e696e6700000000600082015250565b6000615314601c83615261565b915061531f826152de565b602082019050919050565b6000602082019050818103600083015261534381615307565b9050919050565b7f6e6f7420616c6c6f77656420746f206765744552433230000000000000000000600082015250565b6000615380601783615261565b915061538b8261534a565b602082019050919050565b600060208201905081810360008301526153af81615373565b9050919050565b60006060820190506153cb6000830186614bab565b6153d86020830185614bab565b6153e56040830184614e9a565b949350505050565b6000815190506153fc816150ef565b92915050565b60006020828403121561541857615417614a79565b5b6000615426848285016153ed565b91505092915050565b7f4552433230207472616e73666572206661696c65642e00000000000000000000600082015250565b6000615465601683615261565b91506154708261542f565b602082019050919050565b6000602082019050818103600083015261549481615458565b9050919050565b600082825260208201905092915050565b82818337600083830152505050565b6000601f19601f8301169050919050565b60006154d8838561549b565b93506154e58385846154ac565b6154ee836154bb565b840190509392505050565b600060a08201905061550e6000830189614bab565b61551b6020830188614bab565b6155286040830187614e9a565b6155356060830186614e9a565b81810360808301526155488184866154cc565b9050979650505050505050565b7f436f6e7472616374206164647265737320646f6573206e6f742065786973742060008201527f666f72207468697320746f6b656e20616e6420696e6465782e00000000000000602082015250565b60006155b1603983615261565b91506155bc82615555565b604082019050919050565b600060208201905081810360008301526155e0816155a4565b9050919050565b7f4e487b7100000000000000000000000000000000000000000000000000000000600052603260045260246000fd5b7f5f64617461206d75737420636f6e7461696e207468652075696e74323536207460008201527f6f6b656e496420746f207472616e7366657220746865206368696c6420746f6b60208201527f656e20746f2e0000000000000000000000000000000000000000000000000000604082015250565b6000615698604683615261565b91506156a382615616565b606082019050919050565b600060208201905081810360008301526156c78161568b565b9050919050565b7f4e487b7100000000000000000000000000000000000000000000000000000000600052601160045260246000fd5b600061570882614ae1565b915061571383614ae1565b9250817fffffffffffffffffffffffffffffffffffffffffffffffffffffffffffffffff048311821515161561574c5761574b6156ce565b5b828202905092915050565b600061576282614ae1565b915061576d83614ae1565b9250828210156157805761577f6156ce565b5b828203905092915050565b60008151905061579a81614ab5565b92915050565b6000602082840312156157b6576157b5614a79565b5b60006157c48482850161578b565b91505092915050565b7f4368696c6420746f6b656e206e6f74206f776e65642e00000000000000000000600082015250565b6000615803601683615261565b915061580e826157cd565b602082019050919050565b60006020820190508181036000830152615832816157f6565b9050919050565b7f546f6b656e20646f6573206e6f74206f776e2061206368696c6420746f6b656e60008201527f20617420636f6e7472616374206164647265737320616e6420696e6465782e00602082015250565b6000615895603f83615261565b91506158a082615839565b604082019050919050565b600060208201905081810360008301526158c481615888565b9050919050565b50565b60006158db60008361549b565b91506158e6826158cb565b600082019050919050565b60006080820190506159066000830186614bab565b6159136020830185614bab565b6159206040830184614e9a565b8181036060830152615931816158ce565b9050949350505050565b61594481614df1565b811461594f57600080fd5b50565b6000815190506159618161593b565b92915050565b60006020828403121561597d5761597c614a79565b5b600061598b84828501615952565b91505092915050565b600061599f82614ae1565b91507fffffffffffffffffffffffffffffffffffffffffffffffffffffffffffffffff8214156159d2576159d16156ce565b5b600182019050919050565b60006040820190506159f26000830185614bab565b6159ff6020830184614e9a565b9392505050565b6000608082019050615a1b6000830188614bab565b615a286020830187614bab565b615a356040830186614e9a565b8181036060830152615a488184866154cc565b90509695505050505050565b6000819050919050565b6000615a79615a74615a6f84614a83565b615a54565b614a83565b9050919050565b6000615a8b82615a5e565b9050919050565b6000615a9d82615a80565b9050919050565b615aad81615a92565b82525050565b6000604082019050615ac86000830185615aa4565b615ad56020830184614e9a565b9392505050565b7f5f64617461206d75737420636f6e7461696e207468652075696e74323536207460008201527f6f6b656e496420746f207472616e736665722074686520746f6b656e20746f2e602082015250565b6000615b38604083615261565b9150615b4382615adc565b604082019050919050565b60006020820190508181036000830152615b6781615b2b565b9050919050565b7f6d73672e73656e646572206973206e6f74206120636f6e747261637400000000600082015250565b6000615ba4601c83615261565b9150615baf82615b6e565b602082019050919050565b60006020820190508181036000830152615bd381615b97565b9050919050565b6000606082019050615bef6000830187614bab565b615bfc6020830186614e9a565b8181036040830152615c0f8184866154cc565b905095945050505050565b7f455243323233207472616e73666572206661696c65642e000000000000000000600082015250565b6000615c50601783615261565b9150615c5b82615c1a565b602082019050919050565b60006020820190508181036000830152615c7f81615c43565b9050919050565b7f5f746f6b656e496420646f6573206e6f742065786973742e0000000000000000600082015250565b6000615cbc601883615261565b9150615cc782615c86565b602082019050919050565b60006020820190508181036000830152615ceb81615caf565b9050919050565b6000615cfd82614ae1565b9150615d0883614ae1565b9250827fffffffffffffffffffffffffffffffffffffffffffffffffffffffffffffffff03821115615d3d57615d3c6156ce565b5b828201905092915050565b7f4368696c6420746f6b656e206e6f74206f776e656420627920746f6b656e2e00600082015250565b6000615d7e601f83615261565b9150615d8982615d48565b602082019050919050565b60006020820190508181036000830152615dad81615d71565b9050919050565b7f43616e6e6f742072656365697665206368696c6420746f6b656e20626563617560008201527f73652069742068617320616c7265616479206265656e2072656365697665642e602082015250565b6000615e10604083615261565b9150615e1b82615db4565b604082019050919050565b60006020820190508181036000830152615e3f81615e03565b9050919050565b7f546f6b656e206973206368696c64206f66206f7468657220746f7020646f776e60008201527f20636f6d706f7361626c65000000000000000000000000000000000000000000602082015250565b6000615ea2602b83615261565b9150615ead82615e46565b604082019050919050565b60006020820190508181036000830152615ed181615e95565b9050919050565b7f4e487b7100000000000000000000000000000000000000000000000000000000600052600160045260246000fd5b6000615f1282614ae1565b91506000821415615f2657615f256156ce565b5b600182039050919050565b7f4e6f7420656e6f75676820746f6b656e20617661696c61626c6520746f20747260008201527f616e736665722e00000000000000000000000000000000000000000000000000602082015250565b6000615f8d602783615261565b9150615f9882615f31565b604082019050919050565b60006020820190508181036000830152615fbc81615f80565b905091905056fea2646970667358221220fceb17ebaf8ded315b4cdc80d523b9839ec539612b0f9d4eeab0f9c4e926012b64736f6c634300080b0033",
  "immutableReferences": {},
  "source": "// SPDX-License-Identifier: MIT\npragma solidity >=0.4.22 <0.9.0;\n\n// import \"./ERC721.sol\";\nimport \"./interfaces/IERC721Local.sol\";\nimport \"./interfaces/IERC721ReceiverLocal.sol\";\nimport \"./interfaces/IERC20AndERC223.sol\";\nimport \"./interfaces/IERC998ERC20TopDown.sol\";\nimport \"./interfaces/IERC998ERC20TopDownEnumerable.sol\";\nimport \"./interfaces/IERC998ERC721BottomUp.sol\";\nimport \"./interfaces/IERC998ERC721TopDown.sol\";\nimport \"./interfaces/IERC998ERC721TopDownEnumerable.sol\";\n\n\ncontract ComposableTopDown is IERC721Local, IERC998ERC721TopDown, IERC998ERC721TopDownEnumerable, IERC998ERC20TopDown, IERC998ERC20TopDownEnumerable {\n    // return this.rootOwnerOf.selector ^ this.rootOwnerOfChild.selector ^\n    //   this.tokenOwnerOf.selector ^ this.ownerOfChild.selector;\n    bytes32 constant ERC998_MAGIC_VALUE = bytes32(bytes4(0xcd740db5));\n\n    uint256 tokenCount = 0;\n\n    // tokenId => token owner\n    mapping(uint256 => address) internal tokenIdToTokenOwner;\n\n    // root token owner address => (tokenId => approved address)\n    mapping(address => mapping(uint256 => address)) internal rootOwnerAndTokenIdToApprovedAddress;\n\n    // token owner address => token count\n    mapping(address => uint256) internal tokenOwnerToTokenCount;\n\n    // token owner => (operator address => bool)\n    mapping(address => mapping(address => bool)) internal tokenOwnerToOperators;\n\n\n    //constructor(string _name, string _symbol) public ERC721Token(_name, _symbol) {}\n    event ComposableMinted(uint256 tokenId);\n\n    // wrapper on minting new 721\n    function mint(address _to) public returns (uint256) {\n        tokenCount++;\n        uint256 tokenCount_ = tokenCount;\n        tokenIdToTokenOwner[tokenCount_] = _to;\n        tokenOwnerToTokenCount[_to]++;\n        emit ComposableMinted(tokenCount_);\n        return tokenCount_;\n    }\n    //from zepellin ERC721Receiver.sol\n    //old version\n    bytes4 constant ERC721_RECEIVED_OLD = 0xf0b9e5ba;\n    //new version\n    bytes4 constant ERC721_RECEIVED_NEW = 0x150b7a02;\n\n    ////////////////////////////////////////////////////////\n    // ERC721 implementation\n    ////////////////////////////////////////////////////////\n\n    function isContract(address _addr) internal view returns (bool) {\n        uint256 size;\n        assembly {size := extcodesize(_addr)}\n        return size > 0;\n    }\n\n    function rootOwnerOf(uint256 _tokenId) public view override returns (bytes32 rootOwner) {\n        return rootOwnerOfChild(address(0), _tokenId);\n    }\n\n    // returns the owner at the top of the tree of composables\n    // Use Cases handled:\n    // Case 1: Token owner is this contract and token.\n    // Case 2: Token owner is other top-down composable\n    // Case 3: Token owner is other contract\n    // Case 4: Token owner is user\n    function rootOwnerOfChild(address _childContract, uint256 _childTokenId) public view override returns (bytes32 rootOwner) {\n        address rootOwnerAddress;\n        if (_childContract != address(0)) {\n            (rootOwnerAddress, _childTokenId) = _ownerOfChild(_childContract, _childTokenId);\n        }\n        else {\n            rootOwnerAddress = tokenIdToTokenOwner[_childTokenId];\n        }\n        // Case 1: Token owner is this contract and token.\n        while (rootOwnerAddress == address(this)) {\n            (rootOwnerAddress, _childTokenId) = _ownerOfChild(rootOwnerAddress, _childTokenId);\n        }\n\n        bool callSuccess;\n        bytes memory callData;\n        // 0xed81cdda == rootOwnerOfChild(address,uint256)\n        callData = abi.encodeWithSelector(0xed81cdda, address(this), _childTokenId);\n        assembly {\n            callSuccess := staticcall(gas(), rootOwnerAddress, add(callData, 0x20), mload(callData), callData, 0x20)\n            if callSuccess {\n                rootOwner := mload(callData)\n            }\n        }\n        if(callSuccess == true && rootOwner >> 224 == ERC998_MAGIC_VALUE) {\n            // Case 2: Token owner is other top-down composable\n            return rootOwner;\n        }\n        else {\n            // Case 3: Token owner is other contract\n            // Or\n            // Case 4: Token owner is user\n            return ERC998_MAGIC_VALUE << 224 | bytes32(bytes20(rootOwnerAddress));\n        }\n    }\n\n\n    // returns the owner at the top of the tree of composables\n\n    function ownerOf(uint256 _tokenId) public view override returns (address tokenOwner) {\n        tokenOwner = tokenIdToTokenOwner[_tokenId];\n        require(tokenOwner != address(0));\n        return tokenOwner;\n    }\n\n    function balanceOf(address _tokenOwner) external view override returns (uint256) {\n        require(_tokenOwner != address(0));\n        return tokenOwnerToTokenCount[_tokenOwner];\n    }\n\n\n    function approve(address _approved, uint256 _tokenId) external override {\n        address rootOwner = address(bytes20(rootOwnerOf(_tokenId)));\n        require(rootOwner == msg.sender || tokenOwnerToOperators[rootOwner][msg.sender]);\n        rootOwnerAndTokenIdToApprovedAddress[rootOwner][_tokenId] = _approved;\n        emit Approval(rootOwner, _approved, _tokenId);\n    }\n\n    function getApproved(uint256 _tokenId) public view override returns (address)  {\n        address rootOwner = address(bytes20(rootOwnerOf(_tokenId)));\n        return rootOwnerAndTokenIdToApprovedAddress[rootOwner][_tokenId];\n    }\n\n    function setApprovalForAll(address _operator, bool _approved) external override {\n        require(_operator != address(0));\n        tokenOwnerToOperators[msg.sender][_operator] = _approved;\n        emit ApprovalForAll(msg.sender, _operator, _approved);\n    }\n\n    function isApprovedForAll(address _owner, address _operator) external view override returns (bool)  {\n        require(_owner != address(0));\n        require(_operator != address(0));\n        return tokenOwnerToOperators[_owner][_operator];\n    }\n\n\n    function _transferFrom(address _from, address _to, uint256 _tokenId) private {\n        require(_from != address(0));\n        require(tokenIdToTokenOwner[_tokenId] == _from);\n        require(_to != address(0));\n\n        if(msg.sender != _from) {\n            bytes32 rootOwner;\n            bool callSuccess;\n            // 0xed81cdda == rootOwnerOfChild(address,uint256)\n            bytes memory callData = abi.encodeWithSelector(0xed81cdda, address(this), _tokenId);\n            assembly {\n                callSuccess := staticcall(gas(), _from, add(callData, 0x20), mload(callData), callData, 0x20)\n                if callSuccess {\n                    rootOwner := mload(callData)\n                }\n            }\n            if(callSuccess == true) {\n                require(rootOwner >> 224 != ERC998_MAGIC_VALUE, \"Token is child of other top down composable\");\n            }\n            require(tokenOwnerToOperators[_from][msg.sender] ||\n            rootOwnerAndTokenIdToApprovedAddress[_from][_tokenId] == msg.sender);\n        }\n\n        // clear approval\n        if (rootOwnerAndTokenIdToApprovedAddress[_from][_tokenId] != address(0)) {\n            delete rootOwnerAndTokenIdToApprovedAddress[_from][_tokenId];\n            emit Approval(_from, address(0), _tokenId);\n        }\n\n        // remove and transfer token\n        if (_from != _to) {\n            assert(tokenOwnerToTokenCount[_from] > 0);\n            tokenOwnerToTokenCount[_from]--;\n            tokenIdToTokenOwner[_tokenId] = _to;\n            tokenOwnerToTokenCount[_to]++;\n        }\n        emit Transfer(_from, _to, _tokenId);\n\n    }\n\n    function transferFrom(address _from, address _to, uint256 _tokenId) external override {\n        _transferFrom(_from, _to, _tokenId);\n    }\n\n    function safeTransferFrom(address _from, address _to, uint256 _tokenId) external override{\n        _transferFrom(_from, _to, _tokenId);\n        if (isContract(_to)) {\n            bytes4 retval = IERC721ReceiverLocal(_to).onERC721Received(msg.sender, _from, _tokenId, \"\");\n            require(retval == ERC721_RECEIVED_OLD);\n        }\n    }\n\n    function safeTransferFrom(address _from, address _to, uint256 _tokenId, bytes calldata _data) external override {\n        _transferFrom(_from, _to, _tokenId);\n        if (isContract(_to)) {\n            bytes4 retval = IERC721ReceiverLocal(_to).onERC721Received(msg.sender, _from, _tokenId, _data);\n            require(retval == ERC721_RECEIVED_OLD);\n        }\n    }\n\n    ////////////////////////////////////////////////////////\n    // ERC998ERC721 and ERC998ERC721Enumerable implementation\n    ////////////////////////////////////////////////////////\n\n    // tokenId => child contract\n    mapping(uint256 => address[]) private childContracts;\n\n    // tokenId => (child address => contract index+1)\n    mapping(uint256 => mapping(address => uint256)) private childContractIndex;\n\n    // tokenId => (child address => array of child tokens)\n    mapping(uint256 => mapping(address => uint256[])) private childTokens;\n\n    // tokenId => (child address => (child token => child index+1)\n    mapping(uint256 => mapping(address => mapping(uint256 => uint256))) private childTokenIndex;\n\n    // child address => childId => tokenId\n    mapping(address => mapping(uint256 => uint256)) internal childTokenOwner;\n\n\n    function removeChild(uint256 _tokenId, address _childContract, uint256 _childTokenId) private {\n        uint256 tokenIndex = childTokenIndex[_tokenId][_childContract][_childTokenId];\n        require(tokenIndex != 0, \"Child token not owned by token.\");\n\n        // remove child token\n        uint256 lastTokenIndex = childTokens[_tokenId][_childContract].length - 1;\n        uint256 lastToken = childTokens[_tokenId][_childContract][lastTokenIndex];\n        if (_childTokenId == lastToken) {\n            childTokens[_tokenId][_childContract][tokenIndex - 1] = lastToken;\n            childTokenIndex[_tokenId][_childContract][lastToken] = tokenIndex;\n        }\n        // childTokens[_tokenId][_childContract].length--;\n        delete childTokenIndex[_tokenId][_childContract][_childTokenId];\n        delete childTokenOwner[_childContract][_childTokenId];\n\n        // remove contract\n        if (lastTokenIndex == 0) {\n            uint256 lastContractIndex = childContracts[_tokenId].length - 1;\n            address lastContract = childContracts[_tokenId][lastContractIndex];\n            if (_childContract != lastContract) {\n                uint256 contractIndex = childContractIndex[_tokenId][_childContract];\n                childContracts[_tokenId][contractIndex] = lastContract;\n                childContractIndex[_tokenId][lastContract] = contractIndex;\n            }\n            // childContracts[_tokenId].length--;\n            delete childContractIndex[_tokenId][_childContract];\n        }\n    }\n\n    function safeTransferChild(uint256 _fromTokenId, address _to, address _childContract, uint256 _childTokenId) external override{\n        uint256 tokenId = childTokenOwner[_childContract][_childTokenId];\n        require(tokenId > 0 || childTokenIndex[tokenId][_childContract][_childTokenId] > 0);\n        require(tokenId == _fromTokenId);\n        require(_to != address(0));\n        address rootOwner = address(bytes20(rootOwnerOf(tokenId)));\n        require(rootOwner == msg.sender || tokenOwnerToOperators[rootOwner][msg.sender] ||\n        rootOwnerAndTokenIdToApprovedAddress[rootOwner][tokenId] == msg.sender);\n        removeChild(tokenId, _childContract, _childTokenId);\n        IERC721Local(_childContract).safeTransferFrom(address(this), _to, _childTokenId);\n        emit TransferChild(tokenId, _to, _childContract, _childTokenId);\n    }\n\n    function safeTransferChild(uint256 _fromTokenId, address _to, address _childContract, uint256 _childTokenId, bytes calldata _data) external override {\n        uint256 tokenId = childTokenOwner[_childContract][_childTokenId];\n        require(tokenId > 0 || childTokenIndex[tokenId][_childContract][_childTokenId] > 0);\n        require(tokenId == _fromTokenId);\n        require(_to != address(0));\n        address rootOwner = address(bytes20(rootOwnerOf(tokenId)));\n        require(rootOwner == msg.sender || tokenOwnerToOperators[rootOwner][msg.sender] ||\n        rootOwnerAndTokenIdToApprovedAddress[rootOwner][tokenId] == msg.sender);\n        removeChild(tokenId, _childContract, _childTokenId);\n        IERC721Local(_childContract).safeTransferFrom(address(this), _to, _childTokenId, _data);\n        emit TransferChild(tokenId, _to, _childContract, _childTokenId);\n    }\n\n    function transferChild(uint256 _fromTokenId, address _to, address _childContract, uint256 _childTokenId) external override{\n        uint256 tokenId = childTokenOwner[_childContract][_childTokenId];\n        require(tokenId > 0 || childTokenIndex[tokenId][_childContract][_childTokenId] > 0);\n        require(tokenId == _fromTokenId);\n        require(_to != address(0));\n        address rootOwner = address(bytes20(rootOwnerOf(tokenId)));\n        require(rootOwner == msg.sender || tokenOwnerToOperators[rootOwner][msg.sender] ||\n        rootOwnerAndTokenIdToApprovedAddress[rootOwner][tokenId] == msg.sender);\n        removeChild(tokenId, _childContract, _childTokenId);\n        //this is here to be compatible with cryptokitties and other old contracts that require being owner and approved\n        // before transferring.\n        //does not work with current standard which does not allow approving self, so we must let it fail in that case.\n        //0x095ea7b3 == \"approve(address,uint256)\"\n        bytes memory callData = abi.encodeWithSelector(0x095ea7b3, this, _childTokenId);\n        assembly {\n            let success := call(gas(), _childContract, 0, add(callData, 0x20), mload(callData), callData, 0)\n        }\n        IERC721Local(_childContract).transferFrom(address(this), _to, _childTokenId);\n        emit TransferChild(tokenId, _to, _childContract, _childTokenId);\n    }\n\n    function transferChildToParent(uint256 _fromTokenId, address _toContract, uint256 _toTokenId, address _childContract, uint256 _childTokenId, bytes calldata _data) external override{\n        uint256 tokenId = childTokenOwner[_childContract][_childTokenId];\n        require(tokenId > 0 || childTokenIndex[tokenId][_childContract][_childTokenId] > 0);\n        require(tokenId == _fromTokenId);\n        require(_toContract != address(0));\n        address rootOwner = address(bytes20(rootOwnerOf(tokenId)));\n        require(rootOwner == msg.sender || tokenOwnerToOperators[rootOwner][msg.sender] ||\n        rootOwnerAndTokenIdToApprovedAddress[rootOwner][tokenId] == msg.sender);\n        removeChild(_fromTokenId, _childContract, _childTokenId);\n        IERC998ERC721BottomUp(_childContract).transferToParent(address(this), _toContract, _toTokenId, _childTokenId, _data);\n        emit TransferChild(_fromTokenId, _toContract, _childContract, _childTokenId);\n    }\n\n\n    // this contract has to be approved first in _childContract\n    function getChild(address _from, uint256 _tokenId, address _childContract, uint256 _childTokenId) external override{\n        receiveChild(_from, _tokenId, _childContract, _childTokenId);\n        require(_from == msg.sender ||\n        IERC721Local(_childContract).isApprovedForAll(_from, msg.sender) ||\n        IERC721Local(_childContract).getApproved(_childTokenId) == msg.sender);\n        IERC721Local(_childContract).transferFrom(_from, address(this), _childTokenId);\n\n    }\n\n    function onERC721Received(address _from, uint256 _childTokenId, bytes calldata _data) external returns (bytes4) {\n        require(_data.length > 0, \"_data must contain the uint256 tokenId to transfer the child token to.\");\n        // convert up to 32 bytes of_data to uint256, owner nft tokenId passed as uint in bytes\n        uint256 tokenId;\n        assembly {tokenId := calldataload(132)}\n        if (_data.length < 32) {\n            tokenId = tokenId >> 256 - _data.length * 8;\n        }\n        receiveChild(_from, tokenId, msg.sender, _childTokenId);\n        require(IERC721Local(msg.sender).ownerOf(_childTokenId) != address(0), \"Child token not owned.\");\n        return ERC721_RECEIVED_OLD;\n    }\n\n\n    function onERC721Received(address _operator, address _from, uint256 _childTokenId, bytes calldata _data) external override returns (bytes4) {\n        require(_data.length > 0, \"_data must contain the uint256 tokenId to transfer the child token to.\");\n        // convert up to 32 bytes of_data to uint256, owner nft tokenId passed as uint in bytes\n        uint256 tokenId;\n        assembly {tokenId := calldataload(164)}\n        if (_data.length < 32) {\n            tokenId = tokenId >> 256 - _data.length * 8;\n        }\n        receiveChild(_from, tokenId, msg.sender, _childTokenId);\n        require(IERC721Local(msg.sender).ownerOf(_childTokenId) != address(0), \"Child token not owned.\");\n        return ERC721_RECEIVED_NEW;\n    }\n\n\n    function receiveChild(address _from, uint256 _tokenId, address _childContract, uint256 _childTokenId) private {\n        require(tokenIdToTokenOwner[_tokenId] != address(0), \"_tokenId does not exist.\");\n        require(childTokenIndex[_tokenId][_childContract][_childTokenId] == 0, \"Cannot receive child token because it has already been received.\");\n        uint256 childTokensLength = childTokens[_tokenId][_childContract].length;\n        if (childTokensLength == 0) {\n            childContractIndex[_tokenId][_childContract] = childContracts[_tokenId].length;\n            childContracts[_tokenId].push(_childContract);\n        }\n        childTokens[_tokenId][_childContract].push(_childTokenId);\n        childTokenIndex[_tokenId][_childContract][_childTokenId] = childTokensLength + 1;\n        childTokenOwner[_childContract][_childTokenId] = _tokenId;\n        emit ReceivedChild(_from, _tokenId, _childContract, _childTokenId);\n    }\n\n    function _ownerOfChild(address _childContract, uint256 _childTokenId) internal view returns (address parentTokenOwner, uint256 parentTokenId) {\n        parentTokenId = childTokenOwner[_childContract][_childTokenId];\n        require(parentTokenId > 0 || childTokenIndex[parentTokenId][_childContract][_childTokenId] > 0);\n        return (tokenIdToTokenOwner[parentTokenId], parentTokenId);\n    }\n\n    function ownerOfChild(address _childContract, uint256 _childTokenId) external view override returns (bytes32 parentTokenOwner, uint256 parentTokenId) {\n        parentTokenId = childTokenOwner[_childContract][_childTokenId];\n        require(parentTokenId > 0 || childTokenIndex[parentTokenId][_childContract][_childTokenId] > 0);\n        return (ERC998_MAGIC_VALUE << 224 | bytes32(bytes20(tokenIdToTokenOwner[parentTokenId])), parentTokenId);\n    }\n\n    function childExists(address _childContract, uint256 _childTokenId) external view returns (bool) {\n        uint256 tokenId = childTokenOwner[_childContract][_childTokenId];\n        return childTokenIndex[tokenId][_childContract][_childTokenId] != 0;\n    }\n\n    function totalChildContracts(uint256 _tokenId) external view override returns (uint256) {\n        return childContracts[_tokenId].length;\n    }\n\n    function childContractByIndex(uint256 _tokenId, uint256 _index) external view override returns (address childContract) {\n        require(_index < childContracts[_tokenId].length, \"Contract address does not exist for this token and index.\");\n        return childContracts[_tokenId][_index];\n    }\n\n    function totalChildTokens(uint256 _tokenId, address _childContract) external view override returns (uint256) {\n        return childTokens[_tokenId][_childContract].length;\n    }\n\n    function childTokenByIndex(uint256 _tokenId, address _childContract, uint256 _index) external view override returns (uint256 childTokenId) {\n        require(_index < childTokens[_tokenId][_childContract].length, \"Token does not own a child token at contract address and index.\");\n        return childTokens[_tokenId][_childContract][_index];\n    }\n\n    ////////////////////////////////////////////////////////\n    // ERC998ERC223 and ERC998ERC223Enumerable implementation\n    ////////////////////////////////////////////////////////\n\n    // tokenId => token contract\n    mapping(uint256 => address[]) erc20Contracts;\n\n    // tokenId => (token contract => token contract index)\n    mapping(uint256 => mapping(address => uint256)) erc20ContractIndex;\n\n    // tokenId => (token contract => balance)\n    mapping(uint256 => mapping(address => uint256)) erc20Balances;\n\n    function balanceOfERC20(uint256 _tokenId, address _erc20Contract) external view returns (uint256) {\n        return erc20Balances[_tokenId][_erc20Contract];\n    }\n\n    function removeERC20(uint256 _tokenId, address _erc20Contract, uint256 _value) private {\n        if (_value == 0) {\n            return;\n        }\n        uint256 erc20Balance = erc20Balances[_tokenId][_erc20Contract];\n        require(erc20Balance >= _value, \"Not enough token available to transfer.\");\n        uint256 newERC20Balance = erc20Balance - _value;\n        erc20Balances[_tokenId][_erc20Contract] = newERC20Balance;\n        if (newERC20Balance == 0) {\n            uint256 lastContractIndex = erc20Contracts[_tokenId].length - 1;\n            address lastContract = erc20Contracts[_tokenId][lastContractIndex];\n            if (_erc20Contract != lastContract) {\n                uint256 contractIndex = erc20ContractIndex[_tokenId][_erc20Contract];\n                erc20Contracts[_tokenId][contractIndex] = lastContract;\n                erc20ContractIndex[_tokenId][lastContract] = contractIndex;\n            }\n            // erc20Contracts[_tokenId].length--;\n            delete erc20ContractIndex[_tokenId][_erc20Contract];\n        }\n    }\n\n\n    function transferERC20(uint256 _tokenId, address _to, address _erc20Contract, uint256 _value) external override{\n        require(_to != address(0));\n        address rootOwner = address(bytes20(rootOwnerOf(_tokenId)));\n        require(rootOwner == msg.sender || tokenOwnerToOperators[rootOwner][msg.sender] ||\n        rootOwnerAndTokenIdToApprovedAddress[rootOwner][_tokenId] == msg.sender);\n        removeERC20(_tokenId, _erc20Contract, _value);\n        require(IERC20AndERC223(_erc20Contract).transfer(_to, _value), \"ERC20 transfer failed.\");\n        emit TransferERC20(_tokenId, _to, _erc20Contract, _value);\n    }\n\n    // implementation of ERC 223\n    function transferERC223(uint256 _tokenId, address _to, address _erc223Contract, uint256 _value, bytes calldata _data) external override{\n        require(_to != address(0));\n        address rootOwner = address(bytes20(rootOwnerOf(_tokenId)));\n        require(rootOwner == msg.sender || tokenOwnerToOperators[rootOwner][msg.sender] ||\n        rootOwnerAndTokenIdToApprovedAddress[rootOwner][_tokenId] == msg.sender);\n        removeERC20(_tokenId, _erc223Contract, _value);\n        require(IERC20AndERC223(_erc223Contract).transfer(_to, _value, _data), \"ERC223 transfer failed.\");\n        emit TransferERC20(_tokenId, _to, _erc223Contract, _value);\n    }\n\n    // this contract has to be approved first by _erc20Contract\n    function getERC20(address _from, uint256 _tokenId, address _erc20Contract, uint256 _value) public override{\n        bool allowed = _from == msg.sender;\n        if (!allowed) {\n            uint256 remaining;\n            // 0xdd62ed3e == allowance(address,address)\n            bytes memory callData = abi.encodeWithSelector(0xdd62ed3e, _from, msg.sender);\n            bool callSuccess;\n            assembly {\n                callSuccess := staticcall(gas(), _erc20Contract, add(callData, 0x20), mload(callData), callData, 0x20)\n                if callSuccess {\n                    remaining := mload(callData)\n                }\n            }\n            require(callSuccess, \"call to allowance failed\");\n            require(remaining >= _value, \"Value greater than remaining\");\n            allowed = true;\n        }\n        require(allowed, \"not allowed to getERC20\");\n        erc20Received(_from, _tokenId, _erc20Contract, _value);\n        require(IERC20AndERC223(_erc20Contract).transferFrom(_from, address(this), _value), \"ERC20 transfer failed.\");\n    }\n\n    function erc20Received(address _from, uint256 _tokenId, address _erc20Contract, uint256 _value) private {\n        require(tokenIdToTokenOwner[_tokenId] != address(0), \"_tokenId does not exist.\");\n        if (_value == 0) {\n            return;\n        }\n        uint256 erc20Balance = erc20Balances[_tokenId][_erc20Contract];\n        if (erc20Balance == 0) {\n            erc20ContractIndex[_tokenId][_erc20Contract] = erc20Contracts[_tokenId].length;\n            erc20Contracts[_tokenId].push(_erc20Contract);\n        }\n        erc20Balances[_tokenId][_erc20Contract] += _value;\n        emit ReceivedERC20(_from, _tokenId, _erc20Contract, _value);\n    }\n\n    // used by ERC 223\n    function tokenFallback(address _from, uint256 _value, bytes calldata _data) external override{\n        require(_data.length > 0, \"_data must contain the uint256 tokenId to transfer the token to.\");\n        require(isContract(msg.sender), \"msg.sender is not a contract\");\n        /**************************************\n        * TODO move to library\n        **************************************/\n        // convert up to 32 bytes of_data to uint256, owner nft tokenId passed as uint in bytes\n        uint256 tokenId;\n        assembly {\n            tokenId := calldataload(132)\n        }\n        if (_data.length < 32) {\n            tokenId = tokenId >> 256 - _data.length * 8;\n        }\n        //END TODO\n        erc20Received(_from, tokenId, msg.sender, _value);\n    }\n\n\n    function erc20ContractByIndex(uint256 _tokenId, uint256 _index) external view override returns (address) {\n        require(_index < erc20Contracts[_tokenId].length, \"Contract address does not exist for this token and index.\");\n        return erc20Contracts[_tokenId][_index];\n    }\n\n    function totalERC20Contracts(uint256 _tokenId) external view override returns (uint256) {\n        return erc20Contracts[_tokenId].length;\n    }\n\n}",
  "sourcePath": "/Users/parv/Desktop/Parv-workspace/contracts/ComposableTopDown.sol",
  "compiler": {
    "name": "solc",
    "version": "0.8.11+commit.d7f03943.Emscripten.clang"
  },
  "schemaVersion": "3.4.4",
  "updatedAt": "2022-06-07T06:19:01.825Z",
  "networkType": "ethereum",
  "devdoc": {
    "kind": "dev",
    "methods": {
      "approve(address,uint256)": {
        "details": "The zero address indicates there is no approved address.  Throws unless `msg.sender` is the current NFT owner, or an authorized  operator of the current owner.",
        "params": {
          "_approved": "The new approved NFT controller",
          "_tokenId": "The NFT to approve"
        }
      },
      "getApproved(uint256)": {
        "details": "Throws if `_tokenId` is not a valid NFT.",
        "params": {
          "_tokenId": "The NFT to find the approved address for"
        },
        "returns": {
          "_0": "The approved address for this NFT, or the zero address if there is none"
        }
      },
      "isApprovedForAll(address,address)": {
        "params": {
          "_operator": "The address that acts on behalf of the owner",
          "_owner": "The address that owns the NFTs"
        },
        "returns": {
          "_0": "True if `_operator` is an approved operator for `_owner`, false otherwise"
        }
      },
      "ownerOf(uint256)": {
        "details": "NFTs assigned to zero address are considered invalid, and queries  about them do throw.",
        "params": {
          "_tokenId": "The identifier for an NFT"
        },
        "returns": {
          "tokenOwner": "The address of the owner of the NFT"
        }
      },
      "safeTransferFrom(address,address,uint256)": {
        "details": "This works identically to the other function with an extra data parameter,  except this function just sets data to \"\".",
        "params": {
          "_from": "The current owner of the NFT",
          "_to": "The new owner",
          "_tokenId": "The NFT to transfer"
        }
      },
      "setApprovalForAll(address,bool)": {
        "details": "Emits the ApprovalForAll event. The contract MUST allow  multiple operators per owner.",
        "params": {
          "_approved": "True if the operator is approved, false to revoke approval",
          "_operator": "Address to add to the set of authorized operators"
        }
      },
      "transferFrom(address,address,uint256)": {
        "details": "Throws unless `msg.sender` is the current owner, an authorized  operator, or the approved address for this NFT. Throws if `_from` is  not the current owner. Throws if `_to` is the zero address. Throws if  `_tokenId` is not a valid NFT.",
        "params": {
          "_from": "The current owner of the NFT",
          "_to": "The new owner",
          "_tokenId": "The NFT to transfer"
        }
      }
    },
    "version": 1
  },
  "userdoc": {
    "kind": "user",
    "methods": {
      "approve(address,uint256)": {
        "notice": "Change or reaffirm the approved address for an NFT"
      },
      "getApproved(uint256)": {
        "notice": "Get the approved address for a single NFT"
      },
      "isApprovedForAll(address,address)": {
        "notice": "Query if an address is an authorized operator for another address"
      },
      "ownerOf(uint256)": {
        "notice": "Find the owner of an NFT"
      },
      "safeTransferFrom(address,address,uint256)": {
        "notice": "Transfers the ownership of an NFT from one address to another address"
      },
      "setApprovalForAll(address,bool)": {
        "notice": "Enable or disable approval for a third party (\"operator\") to manage  all of `msg.sender`'s assets"
      },
      "transferFrom(address,address,uint256)": {
        "notice": "Transfer ownership of an NFT -- THE CALLER IS RESPONSIBLE  TO CONFIRM THAT `_to` IS CAPABLE OF RECEIVING NFTS OR ELSE  THEY MAY BE PERMANENTLY LOST"
      }
    },
    "version": 1
  }
}